:020000040800F2
:100000000000022069240008A1230008AF23000893
:10001000B5230008BB230008C1230008000000002E
:10002000000000000000000000000000C7230008DE
:10003000D523000800000000E3230008F123000896
:10004000B9240008B9240008B9240008B92400081C
:10005000B9240008B9240008B9240008B92400080C
:10006000B9240008B9240008B9240008B9240008FC
:10007000B9240008B9240008B9240008B9240008EC
:10008000B9240008B9240008B9240008B9240008DC
:10009000B9240008B9240008B9240008B9240008CC
:1000A000B9240008B9240008B9240008B9240008BC
:1000B000B9240008B9240008B9240008B9240008AC
:1000C000B9240008B9240008B9240008B92400089C
:1000D000B9240008B9240008B9240008B92400088C
:1000E000B9240008B9240008B9240008B92400087C
:1000F000B9240008B9240008B9240008B92400086C
:10010000B9240008B9240008B9240008B92400085B
:10011000B9240008B9240008B9240008B92400084B
:10012000B9240008B9240008B9240008B92400083B
:10013000B92400080000000000000000B9240008F5
:10014000B9240008B9240008B9240008B92400081B
:10015000B9240008B9240008B9240008B92400080B
:10016000B9240008B9240008B9240008B9240008FB
:10017000B9240008B9240008B924000800000000D0
:1001800000000000B924000800000000000000008A
:10019000B92400080000000000000000B924000895
:1001A000000000000000000000000000B92400086A
:1001B000B9240008B9240008B9240008B9240008AB
:0401C000B924000856
:1001C40010B5054C237833B9044B13B10448AFF38D
:1001D40000800123237010BD0C00002000000000EB
:1001E4002C25000808B5034B1BB103490348AFF3A2
:1001F400008008BD00000000100000202C2500082D
:1002040053B94AB9002908BF00281CBF4FF0FF3179
:100214004FF0FF3000F072B9ADF1080C6DE904CE77
:1002240000F006F8DDF804E0DDE9022304B07047CD
:100234002DE9F047089E04468846002B4BD18A429C
:10024400154667D9B2FA82F24AB1C2F1200701FA1F
:1002540002F320FA07F7954047EA030894404FEA6F
:10026400154E230CB8FBFEF71FFA85FC0EFB17880E
:1002740043EA084307FB0CF1994209D9EB1807F14B
:10028400FF3080F01B81994240F21881023F2B44D9
:100294005B1AA4B2B3FBFEF00EFB103344EA034432
:1002A40000FB0CFCA44509D92C1900F1FF3380F0A4
:1002B4000781A44540F2048102382C4440EA0740F7
:1002C400A4EB0C0400271EB1D4400023C6E900436C
:1002D4003946BDE8F0878B4209D9002E00F0EB8047
:1002E4000027C6E9000138463946BDE8F087B3FA6D
:1002F40083F7002F47D18B4202D3824200F2FA8067
:10030400841A61EB030301209846002EE0D0C6E96D
:100314000048DDE702B9FFDEB2FA82F2002A40F0BB
:100324008F80491B4FEA154E1FFA85F80127B1FB50
:10033400FEFC230C0EFB1C1143EA014308FB0CF1E9
:10034400994207D9EB180CF1FF3002D2994200F21E
:10035400CD808446591AA3B2B1FBFEF00EFB1014F3
:1003640043EA044408FB00F8A04507D92C1900F11E
:10037400FF3302D2A04500F2B6801846A4EB08046D
:1003840040EA0C409FE7C7F1200CBB4022FA0CFE68
:100394004EEA030E01FA07F420FA0CF521FA0CF3E5
:1003A4004FEA1E482543B3FBF8F92C0C08FB19331C
:1003B4001FFA8EFA44EA034309FB0AF49C4202FA48
:1003C40007F200FA07F10BD91EEB030309F1FF3022
:1003D40080F087809C4240F28480A9F10209734432
:1003E4001B1BADB2B3FBF8F008FB103345EA034422
:1003F40000FB0AFAA24508D91EEB040400F1FF33FE
:100404006BD2A24569D90238744440EA0940A0FB82
:100414000289A4EB0A044C45C2464B4654D351D03E
:10042400002E69D0B1EB0A0564EB030404FA0CFC5A
:10043400FD40FC404CEA0505C6E90054002747E7A7
:10044400C2F1200320FA03F7954001FA02F021FAE1
:1004540003F34FEA154E3843010CB3FBFEF71FFAC2
:1004640085F80EFB173341EA034107FB08F38B427F
:1004740004FA02F407D9691807F1FF3C2FD28B4222
:100484002DD9023F2944CB1A81B2B3FBFEF00EFBF7
:10049400103341EA034100FB08F38B4207D9691882
:1004A40000F1FF3C17D28B4215D902382944C91AEE
:1004B40040EA07473BE73746304609E70746E7E6A1
:1004C4001846FBE64145ABD2B8EB020A69EB0E02D3
:1004D40001381346A4E76046E9E7184695E76746FE
:1004E400D1E781467CE702382C4447E7ACF1020CA3
:1004F4002B442FE7384608E73746E9E6704700BF44
:1005040080B500AF0E4B1B680D4A43F400731360B3
:100514000B4B1B680A4A43F480631360084B1B6847
:10052400074A43F480731360032000F02FF900207E
:1005340000F008F801F08EFE0023184680BD00BFCD
:10054400003C024080B582B000AF7860124B1A685C
:10055400124B1B7819464FF47A73B3FBF1F3B2FBD9
:10056400F3F3184600F039F90346002B01D00123B8
:100574000EE07B680F2B0AD8002279684FF0FF3019
:1005840000F00FF9064A7B681360002300E00123A2
:1005940018460837BD4680BD08000020040000202E
:1005A4000000002080B400AF064B1B781A46064BAF
:1005B4001B681344044A136000BFBD465DF8047B06
:1005C400704700BF040000202800002080B400AF62
:1005D400034B1B681846BD465DF8047B704700BF9B
:1005E4002800002080B584B000AF7860FFF7EEFFEC
:1005F400B8607B68FB60FB68B3F1FF3F05D0094B33
:100604001B781A46FB681344FB6000BFFFF7DEFF4C
:100614000246BB68D31AFA689A42F7D800BF10376B
:10062400BD4680BD0400002080B485B000AF786072
:100634007B6803F00703FB600C4BDB68BB60BA68A4
:100644004FF6FF031340BB60FB681A02BB681343F9
:1006540043F0BF6343F40033BB60044ABB68D36018
:1006640000BF1437BD465DF8047B704700ED00E021
:1006740080B400AF044BDB681B0A03F00703184681
:10068400BD465DF8047B704700ED00E080B483B0A4
:1006940000AF03463960FB7197F90730002B0BDA82
:1006A4003B68DAB20C49FB7903F00F03043B1201F7
:1006B400D2B20B441A7609E03B68DAB2074997F9DB
:1006C40007301201D2B20B4483F8002300BF0C3769
:1006D400BD465DF8047B704700ED00E000E100E0FA
:1006E40080B489B000AFF860B9607A60FB6803F049
:1006F4000703FB61FB69C3F10703042B28BF042331
:10070400BB61FB690433062B02D9FB69033B00E0A0
:1007140000237B614FF0FF32BB6902FA03F3DA4333
:10072400BB681A407B699A404FF0FF317B6901FA3C
:1007340003F3D9437B680B40134318462437BD4663
:100744005DF8047B7047000080B582B000AF78602C
:100754007B68013BB3F1807F01D301230FE00A4A98
:100764007B68013B53600F214FF0FF30FFF78EFF92
:10077400054B00229A60044B07221A600023184696
:100784000837BD4680BD00BF10E000E080B582B0F0
:1007940000AF78607868FFF747FF00BF0837BD46B1
:1007A40080BD80B586B000AF0346B9607A60FB7344
:1007B40000237B61FFF75CFF78617A68B968786928
:1007C400FFF78EFF024697F90F3011461846FFF7E0
:1007D4005DFF00BF1837BD4680BD80B582B000AF55
:1007E40078607868FFF7B0FF034618460837BD46BF
:1007F40080BD000080B489B000AF78603960002308
:100804007B6100233B610023BB610023FB6165E145
:100814000122FB6902FA03F37B613B681B687A6976
:1008240013403B613A697B699A4240F054813B68CA
:100834005B68022B03D03B685B68122B23D1FB69F6
:10084400DA087B68083253F82230BB61FB6903F095
:1008540007039B000F2202FA03F3DB43BA69134038
:10086400BB613B681A69FB6903F007039B0002FA4A
:1008740003F3BA691343BB61FB69DA087B68083286
:10088400B96943F822107B681B68BB61FB695B0094
:10089400032202FA03F3DB43BA691340BB613B68EA
:1008A4005B6803F00302FB695B0002FA03F3BA69B5
:1008B4001343BB617B68BA691A603B685B68012BB0
:1008C4000BD03B685B68022B07D03B685B68112B3D
:1008D40003D03B685B68122B30D17B689B68BB619B
:1008E400FB695B00032202FA03F3DB43BA6913409A
:1008F400BB613B68DA68FB695B0002FA03F3BA691F
:100904001343BB617B68BA699A607B685B68BB61AF
:100914000122FB6902FA03F3DB43BA691340BB61AA
:100924003B685B681B0903F00102FB6902FA03F3ED
:10093400BA691343BB617B68BA695A607B68DB6838
:10094400BB61FB695B00032202FA03F3DB43BA6970
:100954001340BB613B689A68FB695B0002FA03F3CE
:10096400BA691343BB617B68BA69DA603B685B6848
:1009740003F08053002B00F0AE800023FB605C4B3F
:100984005B6C5B4A43F480435364594B5B6C03F4E4
:100994008043FB60FB68574AFB699B08023352F8AB
:1009A4002330BB61FB6903F003039B000F2202FAAF
:1009B40003F3DB43BA691340BB617B684E4A93423D
:1009C40025D07B684D4A93421FD07B684C4A9342A2
:1009D40019D07B684B4A934213D07B684A4A9342AE
:1009E4000DD07B68494A934207D07B68484A9342BA
:1009F40001D106230CE007230AE0052308E00423C1
:100A040006E0032304E0022302E0012300E00023C4
:100A1400FA6902F0030292009340BA691343BB617E
:100A24003449FB699B080233BA6941F82320394BE6
:100A34001B68BB613B69DB43BA691340BB613B681C
:100A44005B6803F48033002B03D0BA693B6913431A
:100A5400BB61304ABB6913602E4B5B68BB613B6969
:100A6400DB43BA691340BB613B685B6803F4003342
:100A7400002B03D0BA693B691343BB61254ABB69A8
:100A84005360244B9B68BB613B69DB43BA691340E9
:100A9400BB613B685B6803F48013002B03D0BA6925
:100AA4003B691343BB611B4ABB699360194BDB6809
:100AB400BB613B69DB43BA691340BB613B685B685C
:100AC40003F40013002B03D0BA693B691343BB61E1
:100AD400104ABB69D360FB690133FB61FB690F2BCF
:100AE4007FF696AE00BF2437BD465DF8047B7047A1
:100AF4000038024000380140000002400004024077
:100B040000080240000C02400010024000140240A1
:100B140000180240003C014080B483B000AF78600C
:100B24000B467B8013467B707B78002B03D07A883E
:100B34007B689A6103E07B881A047B689A6100BF32
:100B44000C37BD465DF8047B7047000080B584B067
:100B540000AF786039607B68002B01D10123CAE0C3
:100B6400674B1B6803F00F033A689A420CD9644B35
:100B74003A68D2B21A70624B1B6803F00F033A68EA
:100B84009A4201D00123B6E07B681B6803F002039C
:100B9400002B20D07B681B6803F00403002B05D0D6
:100BA400584B9B68574A43F4E05393607B681B6837
:100BB40003F00803002B05D0524B9B68514A43F4C1
:100BC400604393604F4B9B6823F0F0027B689B6803
:100BD4004C4913438B607B681B6803F00103002BB3
:100BE40044D07B685B68012B07D1464B1B6803F438
:100BF4000033002B19D101237DE07B685B68022B55
:100C040003D07B685B68032B07D13E4B1B6803F062
:100C14000073002B09D101236DE03A4B1B6803F0EC
:100C24000203002B01D1012365E0364B9B6823F0BE
:100C340003027B685B68334913438B60FFF7C6FC90
:100C4400F8600AE0FFF7C2FC0246FB68D31A41F2DF
:100C54008832934201D903234DE02A4B9B6803F069
:100C64000C027B685B689B009A42EBD1244B1B68A7
:100C740003F00F033A689A420CD2214B3A68D2B27D
:100C84001A701F4B1B6803F00F033A689A4201D095
:100C9400012330E07B681B6803F00403002B08D0B9
:100CA400184B9B6823F4E0527B68DB6815491343B7
:100CB4008B607B681B6803F00803002B09D0114B81
:100CC4009B6823F460427B681B69DB000D49134376
:100CD4008B6000F051F801460A4B9B681B0903F036
:100CE4000F03094AD35C21FA03F3084A1360002076
:100CF400FFF728FC002318461037BD4680BD00BF0F
:100D0400003C02400038024044250008080000204E
:100D140080B400AF034B1B681846BD465DF8047BE6
:100D2400704700BF0800002080B500AFFFF7F0FF58
:100D34000146054B9B689B0A03F00703034AD35CF7
:100D440021FA03F3184680BD0038024054250008F8
:100D540080B500AFFFF7DCFF0146054B9B685B0BDA
:100D640003F00703034AD35C21FA03F3184680BD5A
:100D74000038024054250008F0B587B000AF0023C6
:100D8400FB6000237B610023BB6000237B600023A6
:100D94003B61C64B9B6803F00C030C2B00F27E8175
:100DA40001A252F823F000BFE10D0008A1100008D1
:100DB400A1100008A1100008E70D0008A110000808
:100DC400A1100008A1100008ED0D0008A1100008F2
:100DD400A1100008A1100008490F0008B44B3B61A2
:100DE4005FE1B44B3B615CE1B04B5B6803F03F03F4
:100DF400FB60AE4B5B6803F48003002B4AD0AB4B23
:100E04005B689B094FF0000440F2FF114FF00002B1
:100E140003EA010504EA0206294632464FF00003BC
:100E24004FF00004540144EAD1644B0119462246B0
:100E3400491B62EB06024FF000034FF000049401DB
:100E440044EA91648B015B1A64EB02044FF00001E5
:100E54004FF00002E20042EA5372D9000B461446F6
:100E64005B1944EB06044FF000014FF000026202EC
:100E740042EAD35259020B46144618462146FB68EF
:100E84004FF000041A462346FFF7BAF903460C460E
:100E94007B6149E0854B5B689B094FF0000440F29D
:100EA400FF114FF0000203EA010504EA0206294695
:100EB40032464FF000034FF00004540144EAD16479
:100EC4004B0119462246491B62EB06024FF0000310
:100ED4004FF00004940144EA91648B015B1A64EBC3
:100EE40002044FF000014FF00002E20042EA5372A4
:100EF400D9000B4614465B1944EB06044FF000017D
:100F04004FF00002A20242EA935299020B461446A1
:100F140018462146FB684FF000041A462346FFF7A3
:100F24006FF903460C467B61604B5B681B0C03F056
:100F3400030301335B00BB607A69BB68B2FBF3F364
:100F44003B61AEE0594B5B6803F03F03FB60574BDA
:100F54005B6803F48003002B4AD0544B5B689B0905
:100F64004FF0000440F2FF114FF0000203EA0105C4
:100F740004EA0206294632464FF000034FF000040B
:100F8400540144EAD1644B0119462246491B62EBE1
:100F940006024FF000034FF00004940144EA916408
:100FA4008B015B1A64EB02044FF000014FF0000266
:100FB400E20042EA5372D9000B4614465B1944EB33
:100FC40006044FF000014FF00002620242EAD352DD
:100FD40059020B46144618462146FB684FF000049C
:100FE4001A462346FFF70CF903460C467B6149E099
:100FF4002E4B5B689B094FF0000440F2FF114FF049
:10100400000203EA010504EA0206294632464FF0CB
:1010140000034FF00004540144EAD1644B01194623
:101024002246491B62EB06024FF000034FF0000416
:10103400940144EA91648B015B1A64EB02044FF05F
:1010440000014FF00002E20042EA5372D9000B465D
:1010540014465B1944EB06044FF000014FF0000204
:10106400A20242EA935299020B46144618462146BC
:10107400FB684FF000041A462346FFF7C1F8034605
:101084000C467B61094B5B681B0F03F007037B6015
:101094007A697B68B2FBF3F33B6102E0044B3B618A
:1010A40000BF3B6918461C37BD46F0BD00380240FE
:1010B4000024F40000127A0080B586B000AF786096
:1010C40000233B617B681B6803F00103002B00F0E5
:1010D4008380954B9B6803F00C03042B19D0924B2F
:1010E4009B6803F00C03082B06D18F4B5B6803F459
:1010F4008003B3F5800F0CD08B4B9B6803F00C037B
:101104000C2B12D1884B5B6803F48003B3F5800F7A
:101114000BD1854B1B6803F40033002B5BD07B6839
:101124005B68002B57D1012316E27B685B68B3F53B
:10113400803F06D17C4B1B687B4A43F480331360A9
:101144001DE07B685B68B3F5A02F0CD1764B1B6860
:10115400754A43F480231360734B1B68724A43F44B
:10116400803313600BE0704B1B686F4A23F48033A9
:1011740013606D4B1B686C4A23F4802313607B68F7
:101184005B68002B13D0FFF721FA386108E0FFF702
:101194001DFA02463B69D31A642B01D90323DBE110
:1011A400614B1B6803F40033002BF0D014E0FFF70D
:1011B4000DFA386108E0FFF709FA02463B69D31AD1
:1011C400642B01D90323C7E1574B1B6803F4003395
:1011D400002BF0D100E000BF7B681B6803F0020322
:1011E400002B6FD0504B9B6803F00C03002B17D0DF
:1011F4004D4B9B6803F00C03082B05D14A4B5B68ED
:1012040003F48003002B0BD0474B9B6803F00C03C3
:101214000C2B1CD1444B5B6803F48003002B16D1C8
:10122400414B1B6803F00203002B05D07B68DB688D
:10123400012B01D001238FE13B4B1B6823F0F80203
:101244007B681B69DB00384913430B603AE07B6819
:10125400DB68002B20D0354B01221A60FFF7B6F96A
:10126400386108E0FFF7B2F902463B69D31A022B52
:1012740001D9032370E12C4B1B6803F00203002BFC
:10128400F0D0294B1B6823F0F8027B681B69DB0054
:10129400254913430B6015E0244B00221A60FFF725
:1012A40095F9386108E0FFF791F902463B69D31AD2
:1012B400022B01D903234FE11B4B1B6803F00203EC
:1012C400002BF0D17B681B6803F00803002B37D098
:1012D4007B685B69002B16D0154B01221A60FFF75F
:1012E40075F9386108E0FFF771F902463B69D31AD2
:1012F400022B01D903232FE10B4B5B6F03F0020395
:10130400002BF0D01CE00A4B00221A60FFF75EF9B4
:1013140038610FE0FFF75AF902463B69D31A022BF2
:1013240008D9032318E100BF0038024000004742F7
:10133400800E47428A4B5B6F03F00203002BE9D116
:101344007B681B6803F00403002B00F097800023E4
:10135400FB75834B1B6C03F08053002B0FD10023D0
:10136400FB607F4B1B6C7E4A43F0805313647C4BC1
:101374001B6C03F08053FB60FB680123FB75794B06
:101384001B6803F48073002B18D1764B1B68754AD5
:1013940043F480731360FFF719F9386108E0FFF72D
:1013A40015F902463B69D31A022B01D90323D3E072
:1013B4006C4B1B6803F48073002BF0D07B689B6834
:1013C400012B06D1664B1B6F654A43F0010313677B
:1013D4001CE07B689B68052B0CD1614B1B6F604A3A
:1013E40043F0040313675E4B1B6F5D4A43F0010334
:1013F40013670BE05A4B1B6F594A23F00103136721
:10140400574B1B6F564A23F0040313677B689B6892
:10141400002B15D0FFF7DAF838610AE0FFF7D6F8A9
:1014240002463B69D31A41F28832934201D903231D
:1014340092E04B4B1B6F03F00203002BEED014E041
:10144400FFF7C4F838610AE0FFF7C0F802463B69C9
:10145400D31A41F28832934201D903237CE0404BF2
:101464001B6F03F00203002BEED1FB7D012B05D192
:101474003B4B1B6C3A4A23F0805313647B689B6993
:10148400002B68D0364B9B6803F00C03082B60D00C
:101494007B689B69022B45D1334B00221A60FFF70E
:1014A40095F8386108E0FFF791F802463B69D31AD2
:1014B400022B01D903234FE0294B1B6803F000736F
:1014C400002BF0D17B68DA697B681B6A1A437B685E
:1014D4005B6A9B011A437B689B6A5B08013B1B04A4
:1014E4001A437B68DB6A1B061A437B681B6B1B076A
:1014F4001B4913434B601C4B01221A60FFF766F82B
:10150400386108E0FFF762F802463B69D31A022B00
:1015140001D9032320E0124B1B6803F00073002B56
:10152400F0D018E0104B00221A60FFF74FF8386132
:1015340008E0FFF74BF802463B69D31A022B01D9A6
:10154400032309E0064B1B6803F00073002BF0D162
:1015540001E0012300E0002318461837BD4680BD92
:1015640000380240007000406000474280B582B0FD
:1015740000AF78607B68002B01D101233FE07B68DA
:1015840093F83930DBB2002B06D17B68002283F854
:101594003820786800F086FE7B68242283F839209E
:1015A4007B681B68DA687B681B6822F40052DA6087
:1015B400786800F00BF97B681B681A697B681B6804
:1015C40022F490421A617B681B685A697B681B6825
:1015D40022F02A025A617B681B68DA687B681B6800
:1015E40042F40052DA607B680022DA637B682022CE
:1015F40083F839207B68202283F83A200023184698
:101604000837BD4680BD80B588B002AFF860B960C8
:101614003B601346FB8000237B61FB6893F8393001
:10162400DBB2202B40F08380BB68002B02D0FB8808
:10163400002B01D101237BE0FB6893F83830012BA8
:1016440001D1022374E0FB68012283F83820FB688F
:101654000022DA63FB68212283F83920FEF7B6FF03
:101664007861FB68FA889A84FB68FA88DA8442E035
:10167400FB68DB8C9BB2013B9AB2FB68DA84FB68A3
:101684009B68B3F5805F22D13B6800937B6900229D
:101694008021F86800F050F80346002B01D00323A2
:1016A40046E0BB683B613B691B881A46FB681B68C4
:1016B400C2F308025A60FB681B69002B03D1BB68A4
:1016C4000233BB6017E0BB680133BB6013E03B68C7
:1016D40000937B6900228021F86800F02DF803460E
:1016E400002B01D0032323E0BB685A1CBA601A788C
:1016F400FB681B685A60FB68DB8C9BB2002BB7D17C
:101704003B6800937B6900224021F86800F014F8DC
:101714000346002B01D003230AE0FB68202283F850
:101724003920FB68002283F83820002300E00223DC
:1017340018461837BD4680BD80B584B000AFF86048
:10174400B9603B601346FB712CE0BB69B3F1FF3F0A
:1017540028D0BB69002B07D0FEF738FF02463B6850
:10176400D31ABA699A421DD2FB681B68DA68FB680F
:101774001B6822F4D072DA60FB681B685A69FB6844
:101784001B6822F001025A61FB68202283F8392089
:10179400FB68202283F83A20FB68002283F8382073
:1017A40003230FE0FB681B681A68BB681340BA6820
:1017B4009A420CBF01230023DBB21A46FB799A42FA
:1017C400C3D0002318461037BD4680BDB0B584B0E1
:1017D40000AF78600023FB607B681B681B69FB60BB
:1017E400FB6823F44053FB607B68DB68FA681343AF
:1017F400FB607B681B68FA681A617B681B68DB689E
:10180400FB60FB6823F4164323F00C03FB607B6846
:101814009A687B681B691A437B685B691A437B6817
:10182400DB691343FA681343FB607B681B68FA683F
:10183400DA607B681B685B69FB60FB6823F44073B8
:10184400FB607B689B69FA681343FB607B681B68D9
:10185400FA685A617B68DB69B3F5004F40F0E480B5
:101864007B681B68AB4A934204D07B681B68AA4A16
:1018740093426CD1FFF76CFA024613469B00134463
:101884009A001A447B685B685B00B2FBF3F3A34ADB
:10189400A2FB03235B091C01FFF75AFA0246134615
:1018A4009B0013449A001A447B685B685B00B2FB9C
:1018B400F3F5FFF74DFA024613469B0013449A00D2
:1018C4001A447B685B685B00B2FBF3F3934AA2FBA8
:1018D40003235B09642202FB03F3EB1ADB003233BC
:1018E4008E4AA2FB03235B095B0003F4F8731C44D8
:1018F400FFF72EFA024613469B0013449A001A443B
:101904007B685B685B00B2FBF3F5FFF721FA0246E4
:1019140013469B0013449A001A447B685B685B007F
:10192400B2FBF3F37D4AA2FB03235B09642202FBAF
:1019340003F3EB1ADB003233784AA2FB03235B097F
:1019440003F007027B681B6822449A6054E1FFF7A6
:10195400EBF9024613469B0013449A001A447B6831
:101964005B685B00B2FBF3F36C4AA2FB03235B09E5
:101974001C01FFF7D9F9024613469B0013449A0051
:101984001A447B685B685B00B2FBF3F5FFF7CCF9A4
:10199400024613469B0013449A001A447B685B6812
:1019A4005B00B2FBF3F35D4AA2FB03235B096422F1
:1019B40002FB03F3EB1ADB003233584AA2FB032386
:1019C4005B095B0003F4F8731C44FFF7ADF90246AE
:1019D40013469B0013449A001A447B685B685B00BF
:1019E400B2FBF3F5FFF7A0F9024613469B0013443C
:1019F4009A001A447B685B685B00B2FBF3F3474AC6
:101A0400A2FB03235B09642202FB03F3EB1ADB0052
:101A14003233424AA2FB03235B0903F007027B68CB
:101A24001B6822449A60E7E07B681B68394A93424A
:101A340004D07B681B68384A934271D1FFF788F958
:101A4400024613469B0013449A001A447B685B6861
:101A54009B00B2FBF3F3314AA2FB03235B091C0195
:101A6400FFF776F9024613469B0013449A001A4482
:101A74007B685B689B00B2FBF3F5FFF769F90246EC
:101A840013469B0013449A001A447B685B689B00CE
:101A9400B2FBF3F3214AA2FB03235B09642202FB9A
:101AA40003F3EB1A1B0132331C4AA2FB03235B0929
:101AB40003F0F0031C44FFF74BF9024613469B0066
:101AC40013449A001A447B685B689B00B2FBF3F5ED
:101AD400FFF73EF9024613469B0013449A001A444A
:101AE4007B685B689B00B2FBF3F30C4AA2FB032305
:101AF4005B09642202FB03F3EB1A1B013233074A2E
:101B0400A2FB03235B0903F00F027B681B682244DA
:101B14009A6071E000100140001401401F85EB51F0
:101B2400FFF702F9024613469B0013449A001A4435
:101B34007B685B689B00B2FBF3F3314AA2FB03238F
:101B44005B091C01FFF7F0F8024613469B0013449F
:101B54009A001A447B685B689B00B2FBF3F5FFF7BD
:101B6400E3F8024613469B0013449A001A447B6828
:101B74005B689B00B2FBF3F3214AA2FB03235B09DE
:101B8400642202FB03F3EB1A1B0132331C4AA2FB4F
:101B940003235B0903F0F0031C44FFF7C5F8024676
:101BA40013469B0013449A001A447B685B689B00AD
:101BB400B2FBF3F5FFF7B8F8024613469B00134453
:101BC4009A001A447B685B689B00B2FBF3F30C4AEF
:101BD400A2FB03235B09642202FB03F3EB1A1B0140
:101BE4003233074AA2FB03235B0903F00F027B682D
:101BF4001B6822449A60FFE700BF1037BD46B0BDA2
:101C04001F85EB5180B582B000AF78603960432105
:101C1400386800F0F2F87B681B781946386800F0E1
:101C240002F97B685B781946386800F0FCF87B6839
:101C34009B781946386800F0F6F87B68B3F90430ED
:101C44001946386800F00DF97B68B3F90630194677
:101C5400386800F006F97B68B3F90830194638682B
:101C640000F0FFF87B68B3F90A301946386800F0D1
:101C7400F8F87B68B3F90C301946386800F0F1F8CD
:101C84007B68B3F90E301946386800F0EAF800BFF3
:101C94000837BD4680BDB0B5ADF5007D3EAF3B1DF8
:101CA40018603B46196007F108023B1D114618688D
:101CB400FFF7A8FF07F108043D46684604F10C034A
:101CC400F122194600F01CFC94E80E00286800F08C
:101CD40078F80346184607F58477BD46B0BD80B44E
:101CE40083B000AF786039607B683A685A607B687B
:101CF40000221A707B6800229A8100BF0C37BD460F
:101D04005DF8047B704780B586B000AFF8607A60F8
:101D14001A460B46FB7213463B813B89FA2B01D9C9
:101D240002234AE0FB685B68DB68984703461A466F
:101D34003B8905339A4201DA03233EE0FB685B6882
:101D44009B683E209847FB685B689B68FA7A10465C
:101D54009847FB685B689B683A89D2B210469847FB
:101D6400FB685B689B683A89D1B2FA7A0A44D2B2BA
:101D7400104698470023FB750023BB7511E0BB7D1B
:101D84007A6813441B787B75FB685B689B687A7D73
:101D940010469847FA7D7B7D1344FB75BB7D013368
:101DA400BB75BB7D9BB23A899A42E8D8FB685B68F5
:101DB4009B68FA7D10469847002318461837BD469D
:101DC40080BD84B080B582B000AF786007F11400A4
:101DD40080E80E00797D97F8103198B207F114036A
:101DE4009A1C03467868FFF78EFF034618460837A7
:101DF400BD46BDE8804004B0704780B483B000AFF6
:101E040078600B46FB707B68FA785A707B68002216
:101E140083F8FC207B6800221A7000BF0C37BD4693
:101E24005DF8047B704780B483B000AF78600B46E4
:101E3400FB707B6893F8FC30F92B0CD87B6893F823
:101E4400FC305A1CD1B27A6882F8FC101A467B68BE
:101E54001344FA789A7000BF0C37BD465DF8047BD2
:101E6400704780B582B000AF78600B467B807B887A
:101E7400DBB219467868FFF7D6FFB7F902301B12B8
:101E84001BB2DBB219467868FFF7CDFF00BF0837F5
:101E9400BD4680BD80B400AF00231846BD465DF842
:101EA400047B704780B400AF00231846BD465DF83C
:101EB400047B704780B582B000AF0346FB71F91D07
:101EC400642301220648FFF79EFBF91D64230122C7
:101ED4000448FFF798FB00BF0837BD4680BD00BF2C
:101EE4006C0000202C00002080B400AF4FF6FF737C
:101EF4001846BD465DF8047B7047000080B5CCB041
:101F040000AF334BC7F81C31324BC7F82831324B82
:101F1400C7F82031314BC7F8243107F58E7207F129
:101F2400100311461846FFF7DAFE3B4601221A70E9
:101F34003B4601225A703B4601229A700023C7F89F
:101F44002C3118E03A46D7F82C31134401221A7088
:101F54003A46D7F82C319B0013440022DA803A46E3
:101F6400D7F82C319B00134400229A80D7F82C31E7
:101F74000133C7F82C31D7F82C31022BE2DDFEF700
:101F8400BFFA00F02DF800F0EDF800F0C1F800F011
:101F940095F83B464FF4B8729A8107F110023B461C
:101FA40011461846FFF777FE40F6B830FEF71AFBE5
:101FB4003B464FF690629A8107F110023B46114668
:101FC4001846FFF768FE40F6B830FEF70BFBE0E773
:101FD400991E0008ED1E0008A91E0008B91E00087D
:101FE40080B594B000AF07F11C03342200211846D9
:101FF40000F091FA07F1080300221A605A609A600F
:10200400DA601A6100237B602A4B1B6C294A43F077
:1020140080531364274B1B6C03F080537B607B68F5
:1020240000233B60244B1B6823F44043224A43F4BF
:1020340080431360204B1B6803F440433B603B68C0
:102044000223FB610123BB621023FB6202237B6337
:102054000023BB631023FB634FF4A8733B64042386
:102064007B640223BB640223FB6407F11C03184650
:10207400FFF722F80346002B01D000F0E3F80F230A
:10208400BB600223FB6000233B614FF480537B6100
:102094000023BB6107F1080302211846FEF756FD31
:1020A4000346002B01D000F0CDF800BF5037BD46E9
:1020B40080BD00BF003802400070004080B500AF12
:1020C400114B124A1A60104B4FF4E1325A600E4B16
:1020D40000229A600C4B0022DA600B4B00221A613A
:1020E400094B0C225A61084B00229A61064B0022CC
:1020F400DA610548FFF73AFA0346002B01D000F0F5
:10210400A1F800BF80BD00BF2C00002000100140DA
:1021140080B500AF114B124A1A60104B4FF4E132F4
:102124005A600E4B00229A600C4B0022DA600B4B73
:1021340000221A61094B0C225A61084B00229A6151
:10214400064B0022DA610548FFF710FA0346002B1C
:1021540001D000F077F800BF80BD00BF6C00002004
:102164000044004080B58AB000AF07F11403002298
:102174001A605A609A60DA601A6100233B612D4B41
:102184001B6B2C4A43F0040313632A4B1B6B03F0B1
:1021940004033B613B690023FB60264B1B6B254A10
:1021A40043F080031363234B1B6B03F08003FB603A
:1021B400FB680023BB601F4B1B6B1E4A43F00103EB
:1021C40013631C4B1B6B03F00103BB60BB68002350
:1021D4007B60184B1B6B174A43F002031363154BC8
:1021E4001B6B03F002037B607B68002220211248F2
:1021F400FEF792FC4FF400537B61104BBB6100234C
:10220400FB6107F1140319460D48FEF7F3FA202386
:102214007B610123BB610023FB6100233B6207F167
:10222400140319460448FEF7E5FA00BF2837BD46F3
:1022340080BD00BF003802400000024000002110B1
:102244000008024080B400AF00BFBD465DF8047BC7
:102254007047000080B582B000AF00237B60104B54
:102264005B6C0F4A43F4804353640D4B5B6C03F483
:1022740080437B607B6800233B60094B1B6C084AEE
:1022840043F080531364064B1B6C03F080533B6094
:102294003B680720FEF77AFA00BF0837BD4680BDC9
:1022A4000038024080B58CB000AF786007F11C03A1
:1022B40000221A605A609A60DA601A617B681B68AF
:1022C400324A93422DD10023BB61314B5B6C304ABF
:1022D40043F0100353642E4B5B6C03F01003BB619B
:1022E400BB6900237B612A4B1B6B294A43F0010322
:1022F4001363274B1B6B03F001037B617B694FF472
:10230400C063FB6102233B6201237B620323BB6244
:102314000723FB6207F11C0319461E48FEF76AFAFD
:1023240030E07B681B681C4A93422BD100233B613D
:10233400174B1B6C164A43F400331364144B1B6C89
:1023440003F400333B613B690023FB60104B1B6BC0
:102354000F4A43F0010313630D4B1B6B03F001039E
:10236400FB60FB680C23FB6102233B6201237B625D
:102374000323BB620723FB6207F11C0319460548CC
:10238400FEF738FA00BF3037BD4680BD001001406B
:1023940000380240000002400044004080B400AF16
:1023A40000BFBD465DF8047B704780B400AFFEE714
:1023B40080B400AFFEE780B400AFFEE780B400AFA6
:1023C400FEE780B400AF00BFBD465DF8047B7047F4
:1023D40080B400AF00BFBD465DF8047B704780B495
:1023E40000AF00BFBD465DF8047B704780B500AF09
:1023F400FEF7D8F800BF80BD80B400AF164BD3F809
:102404008830154A43F47003C2F88830134B1B68B4
:10241400124A43F001031360104B00229A600F4BE1
:102424001B680E4A23F0847323F4803313600B4B30
:102434000B4A5A60094B1B68084A23F48023136033
:10244400064B0022DA60044B4FF000629A6000BF32
:10245400BD465DF8047B704700ED00E000380240A3
:1024640010300024DFF834D0002103E00C4B5B581B
:10247400435004310B480C4B42189A42F6D30B4A92
:1024840002E0002342F8043B094B9A42F9D3FFF7D8
:10249400B3FF00F011F8FFF731FD70470000022090
:1024A4006C250008000000200C0000200C00002017
:1024B400AC000020FEE7000070B50D4E0D4CA41BCF
:1024C400A4100025A54209D10B4E0C4C00F02CF8A9
:1024D400A41BA4100025A54205D170BD56F82530D3
:1024E40098470135EEE756F8253098470135F2E76D
:1024F4006425000864250008642500086825000890
:1025040010B5431E0A44914200D110BD11F8014B8D
:1025140003F8014FF7E702440346934200D17047A2
:1025240003F8011BF9E70000F8B500BFF8BC08BCCC
:102534009E467047F8B500BFF8BC08BC9E4670477D
:10254400000000000000000001020304060708095F
:08255400000000000102030475
:08255C00D8DCFF7F0100000044
:04256400E901000881
:04256800C5010008A1
:0C256C0010000000010000000024F4003A
:040000050800246962
:00000001FF
