:020000040800F2
:10000000000002201D4B00082D4A00083B4A000852
:10001000414A0008474A00084D4A00080000000015
:10002000000000000000000000000000534A00082B
:10003000614A0008000000006F4A00087D4A00087D
:100040006D4B00086D4B00086D4B00086D4B0008B0
:100050006D4B00086D4B00086D4B00086D4B0008A0
:100060006D4B00086D4B00086D4B00086D4B000890
:100070006D4B00086D4B00086D4B00086D4B000880
:100080006D4B00086D4B00086D4B00086D4B000870
:100090006D4B00086D4B00086D4B00086D4B000860
:1000A0006D4B00086D4B00086D4B00086D4B000850
:1000B0006D4B00086D4B00086D4B00086D4B000840
:1000C0006D4B00086D4B00086D4B00086D4B000830
:1000D0006D4B0008894A00086D4B00086D4B000805
:1000E0006D4B00086D4B00086D4B00086D4B000810
:1000F0006D4B00086D4B00086D4B00086D4B000800
:100100006D4B00086D4B00086D4B00086D4B0008EF
:100110006D4B00086D4B00086D4B00086D4B0008DF
:100120006D4B00086D4B00089D4A00086D4B0008A0
:100130006D4B000800000000000000006D4B00083F
:100140006D4B00086D4B00086D4B00086D4B0008AF
:100150006D4B00086D4B00086D4B00086D4B00089F
:100160006D4B00086D4B00086D4B00086D4B00088F
:100170006D4B00086D4B00086D4B0008000000003F
:10018000000000006D4B00080000000000000000AF
:100190006D4B000800000000000000006D4B0008DF
:1001A0000000000000000000000000006D4B00088F
:1001B0006D4B00086D4B00086D4B00086D4B00083F
:0401C0006D4B00087B
:1001D00010B5054C237833B9044B13B10448AFF381
:1001E00000800123237010BDDC010020000000000E
:1001F0005C6C000808B5034B1BB103490348AFF31F
:10020000008008BD00000000E00100205C6C0008D8
:1002100081F0004102E000BF83F0004330B54FEAB7
:1002200041044FEA430594EA050F08BF90EA020F24
:100230001FBF54EA000C55EA020C7FEA645C7FEAB7
:10024000655C00F0E2804FEA5454D4EB5555B8BFDA
:100250006D420CDD2C4480EA020281EA030382EA4B
:10026000000083EA010180EA020281EA0303362DDD
:1002700088BF30BD11F0004F4FEA01314FF4801CB0
:100280004CEA113102D0404261EB410113F0004FC2
:100290004FEA03334CEA133302D0524263EB430379
:1002A00094EA050F00F0A780A4F10104D5F1200E17
:1002B0000DDB02FA0EFC22FA05F2801841F1000172
:1002C00003FA0EF2801843FA05F359410EE0A5F146
:1002D00020050EF1200E012A03FA0EFC28BF4CF077
:1002E000020C43FA05F3C01851EBE37101F000452D
:1002F00007D54FF0000EDCF1000C7EEB00006EEB3A
:100300000101B1F5801F1BD3B1F5001F0CD34908C3
:100310005FEA30004FEA3C0C04F101044FEA44521A
:1003200012F5800F80F09A80BCF1004F08BF5FEAA1
:10033000500C50F1000041EB045141EA050130BD81
:100340005FEA4C0C404141EB010111F4801FA4F124
:100350000104E9D191F0000F04BF01460020B1FA79
:1003600081F308BF2033A3F10B03B3F120020CDAB1
:100370000C3208DD02F1140CC2F10C0201FA0CF08F
:1003800021FA02F10CE002F11402D8BFC2F1200CF4
:1003900001FA02F120FA0CFCDCBF41EA0C019040AA
:1003A000E41AA2BF01EB0451294330BD6FEA0404F3
:1003B0001F3C1CDA0C340EDC04F11404C4F12002DE
:1003C00020FA04F001FA02F340EA030021FA04F3F0
:1003D00045EA030130BDC4F10C04C4F1200220FA47
:1003E00002F001FA04F340EA0300294630BD21FA85
:1003F00004F0294630BD94F0000F83F4801306BF4B
:1004000081F480110134013D4EE77FEA645C18BF3E
:100410007FEA655C29D094EA050F08BF90EA020FD5
:1004200005D054EA000C04BF1946104630BD91EACD
:10043000030F1EBF0021002030BD5FEA545C05D1D0
:100440004000494128BF41F0004130BD14F580040F
:100450003CBF01F5801130BD01F0004545F0FE4183
:1004600041F470014FF0000030BD7FEA645C1ABFB8
:10047000194610467FEA655C1CBF0B46024650EAEF
:10048000013406BF52EA033591EA030F41F400211B
:1004900030BD00BF90F0000F04BF0021704730B5A1
:1004A0004FF4806404F132044FF000054FF0000176
:1004B00050E700BF90F0000F04BF0021704730B537
:1004C0004FF4806404F1320410F0004548BF40420C
:1004D0004FF000013EE700BF42004FEAE2014FEA61
:1004E00031014FEA02701FBF12F07F4393F07F4F3C
:1004F00081F06051704732F07F4208BF704793F03F
:100500007F4F04BF41F40021704730B54FF4607451
:1005100001F0004521F000411CE700BF50EA010254
:1005200008BF704730B54FF000050AE050EA0102FD
:1005300008BF704730B511F0004502D5404261EB6D
:1005400041014FF4806404F132045FEA915C3FF4AE
:10055000D8AE4FF003025FEADC0C18BF03325FEA4B
:10056000DC0C18BF033202EBDC02C2F1200300FAFC
:1005700003FC20FA02F001FA03FE40EA0E0021FA21
:1005800002F11444BDE600BF53B94AB9002908BFBF
:1005900000281CBF4FF0FF314FF0FF3000F072B960
:1005A000ADF1080C6DE904CE00F006F8DDF804E0CA
:1005B000DDE9022304B070472DE9F047089E0446A8
:1005C0008846002B4BD18A42154667D9B2FA82F28F
:1005D0004AB1C2F1200701FA02F320FA07F7954069
:1005E00047EA030894404FEA154E230CB8FBFEF788
:1005F0001FFA85FC0EFB178843EA084307FB0CF142
:10060000994209D9EB1807F1FF3080F01B8199421C
:1006100040F21881023F2B445B1AA4B2B3FBFEF0F8
:100620000EFB103344EA034400FB0CFCA44509D93B
:100630002C1900F1FF3380F00781A44540F20481BA
:1006400002382C4440EA0740A4EB0C0400271EB1FA
:10065000D4400023C6E900433946BDE8F0878B4209
:1006600009D9002E00F0EB800027C6E900013846CA
:100670003946BDE8F087B3FA83F7002F47D18B42A4
:1006800002D3824200F2FA80841A61EB0303012054
:100690009846002EE0D0C6E90048DDE702B9FFDE4B
:1006A000B2FA82F2002A40F08F80491B4FEA154EC1
:1006B0001FFA85F80127B1FBFEFC230C0EFB1C1171
:1006C00043EA014308FB0CF1994207D9EB180CF1FE
:1006D000FF3002D2994200F2CD808446591AA3B26B
:1006E000B1FBFEF00EFB101443EA044408FB00F8D3
:1006F000A04507D92C1900F1FF3302D2A04500F222
:10070000B6801846A4EB080440EA0C409FE7C7F106
:10071000200CBB4022FA0CFE4EEA030E01FA07F44D
:1007200020FA0CF521FA0CF34FEA1E482543B3FBDF
:10073000F8F92C0C08FB19331FFA8EFA44EA03432C
:1007400009FB0AF49C4202FA07F200FA07F10BD9FE
:100750001EEB030309F1FF3080F087809C4240F2DA
:100760008480A9F1020973441B1BADB2B3FBF8F0FE
:1007700008FB103345EA034400FB0AFAA24508D9F6
:100780001EEB040400F1FF336BD2A24569D9023895
:10079000744440EA0940A0FB0289A4EB0A044C45DA
:1007A000C2464B4654D351D0002E69D0B1EB0A0556
:1007B00064EB030404FA0CFCFD40FC404CEA050524
:1007C000C6E90054002747E7C2F1200320FA03F7E7
:1007D000954001FA02F021FA03F34FEA154E38432F
:1007E000010CB3FBFEF71FFA85F80EFB173341EA45
:1007F000034107FB08F38B4204FA02F407D9691896
:1008000007F1FF3C2FD28B422DD9023F2944CB1A4E
:1008100081B2B3FBFEF00EFB103341EA034100FB53
:1008200008F38B4207D9691800F1FF3C17D28B42BD
:1008300015D902382944C91A40EA07473BE7374629
:10084000304609E70746E7E61846FBE64145ABD2E6
:10085000B8EB020A69EB0E0201381346A4E76046C2
:10086000E9E7184695E76746D1E781467CE7023815
:100870002C4447E7ACF1020C2B442FE7384608E73D
:100880003746E9E6704700BF034613F8012B002AFC
:10089000FBD1181A0138704700000000000000006A
:1008A00001F0FF01102A2BDB10F0070F08D010F821
:1008B000013B013A8B422DD010F0070F42B3F6D125
:1008C000F0B441EA012141EA014122F007047FF03E
:1008D00000070023F0E80256083C85EA010586EA95
:1008E000010685FA47F5A3FA87F586FA47F6A5FAD1
:1008F00087F68EB9EED1F0BC01F0FF0102F00702DD
:1009000032B110F8013B013A83EA010313B1F8D187
:100910000020704701387047002D06BF3546033868
:10092000073815F0010F07D1013015F4807F02BFA1
:10093000013015F4C03F0130F0BC0138704700BFF2
:1009400070B54FF0FF0C4CF4E06C1CEA11541DBF65
:100950001CEA135594EA0C0F95EA0C0F00F0DEF830
:100960002C4481EA030621EA4C5123EA4C5350EA15
:10097000013518BF52EA033541F4801143F4801366
:1009800038D0A0FB02CE4FF00005E1FB02E506F0F7
:100990000042E0FB03E54FF00006E1FB03569CF04C
:1009A000000F18BF4EF0010EA4F1FF04B6F5007F52
:1009B00064F5407404D25FEA4E0E6D4146EB0606C4
:1009C00042EAC62141EA55514FEAC52040EA5E504D
:1009D0004FEACE2EB4F1FD0C88BFBCF5E06F1ED8F7
:1009E000BEF1004F08BF5FEA500E50F1000041EB2E
:1009F000045170BD06F0004646EA010140EA0200DB
:100A000081EA0301B4EB5C04C2BFD4EB0C0541EAFC
:100A1000045170BD41F480114FF0000E013C00F311
:100A2000AB8014F1360FDEBF002001F0004170BD35
:100A3000C4F10004203C35DA0C341BDC04F114044E
:100A4000C4F1200500FA05F320FA04F001FA05F2DA
:100A500040EA020001F0004221F0004110EBD370A7
:100A600021FA04F642EB06015EEA430E08BF20EAD3
:100A7000D37070BDC4F10C04C4F1200500FA04F376
:100A800020FA05F001FA04F240EA020001F0004108
:100A900010EBD37041F100015EEA430E08BF20EA7B
:100AA000D37070BDC4F1200500FA05F24EEA020EC3
:100AB00020FA04F301FA05F243EA020321FA04F0F2
:100AC00001F0004121FA04F220EA020000EBD370A9
:100AD0005EEA430E08BF20EAD37070BD94F0000FA9
:100AE0000FD101F00046400041EB010111F4801FDD
:100AF00008BF013CF7D041EA060195F0000F18BF8E
:100B0000704703F00046520043EB030313F4801FC9
:100B100008BF013DF7D043EA0603704794EA0C0F83
:100B20000CEA135518BF95EA0C0F0CD050EA410699
:100B300018BF52EA4306D1D181EA030101F0004116
:100B40004FF0000070BD50EA410606BF104619463E
:100B500052EA430619D094EA0C0F02D150EA01364A
:100B600013D195EA0C0F05D152EA03361CBF10468B
:100B700019460AD181EA030101F0004141F0FE412A
:100B800041F470014FF0000070BD41F0FE4141F4AE
:100B9000780170BD70B54FF0FF0C4CF4E06C1CEAAE
:100BA00011541DBF1CEA135594EA0C0F95EA0C0F63
:100BB00000F0A7F8A4EB050481EA030E52EA03351E
:100BC0004FEA013100F088804FEA03334FF080553F
:100BD00045EA131343EA12634FEA022245EA11156C
:100BE00045EA10654FEA00260EF000419D4208BF1D
:100BF000964244F1FD0404F5407402D25B084FEACA
:100C00003202B61A65EB03055B084FEA32024FF475
:100C100080104FF4002CB6EB020E75EB030E22BFD2
:100C2000B61A754640EA0C005B084FEA3202B6EB92
:100C3000020E75EB030E22BFB61A754640EA5C0041
:100C40005B084FEA3202B6EB020E75EB030E22BFD1
:100C5000B61A754640EA9C005B084FEA3202B6EBD2
:100C6000020E75EB030E22BFB61A754640EADC0091
:100C700055EA060E18D04FEA051545EA16754FEAF3
:100C800006164FEAC30343EA52734FEAC2025FEA11
:100C90001C1CC0D111F4801F0BD141EA00014FF0A0
:100CA00000004FF0004CB6E711F4801F04BF014371
:100CB0000020B4F1FD0C88BFBCF5E06F3FF6AFAE8D
:100CC000B5EB030C04BFB6EB020C5FEA500C50F11D
:100CD000000041EB045170BD0EF0004E4EEA1131A0
:100CE00014EB5C04C2BFD4EB0C0541EA045170BDA7
:100CF00041F480114FF0000E013C90E645EA060EEB
:100D00008DE60CEA135594EA0C0F08BF95EA0C0F18
:100D10003FF43BAF94EA0C0F0AD150EA01347FF460
:100D200034AF95EA0C0F7FF425AF104619462CE737
:100D300095EA0C0F06D152EA03353FF4FDAE10469A
:100D4000194622E750EA410618BF52EA43067FF4EB
:100D5000C5AE50EA41047FF40DAF52EA43057FF47B
:100D6000EBAE12E74FF0FF3C06E000BF4FF0010C86
:100D700002E000BF4FF0010C4DF804CD4FEA410CEA
:100D80007FEA6C5C4FEA430C18BF7FEA6C5C1BD0B7
:100D900001B050EA410C0CBF52EA430C91EA030F38
:100DA00002BF90EA020F0020704710F1000F91EA95
:100DB000030F58BF994208BF90422CBFD8176FEA63
:100DC000E37040F0010070474FEA410C7FEA6C5C31
:100DD00002D150EA013C07D14FEA430C7FEA6C5C38
:100DE000D6D152EA033CD3D05DF8040B704700BF64
:100DF0008446104662468C461946634600E000BFB2
:100E000001B5FFF7B7FF002848BF10F1000F01BD83
:100E10004DF808EDFFF7F4FF0CBF012000205DF84E
:100E200008FB00BF4DF808EDFFF7EAFF34BF0120D3
:100E300000205DF808FB00BF4DF808EDFFF7E0FF6C
:100E400094BF012000205DF808FB00BF4DF808EDBD
:100E5000FFF7CEFF94BF012000205DF808FB00BF24
:100E60004DF808EDFFF7C4FF34BF012000205DF806
:100E700008FB00BF4FEA410C7FEA6C5C02D150EAEC
:100E8000013C0AD14FEA430C7FEA6C5C02D152EA82
:100E9000033C02D14FF0000070474FF00100704753
:100EA0004FEA410212F5001215D211D56FF4787392
:100EB000B3EB625212D94FEAC12343F0004343EA35
:100EC000505311F0004F23FA02F018BF4042704710
:100ED0004FF00000704750EA013005D111F000409A
:100EE00008BF6FF0004070474FF00000704700BF30
:100EF00080B500AF0E4B1B680D4A43F400731360BE
:100F00000B4B1B680A4A43F480631360084B1B6851
:100F1000074A43F480731360032000F015FD00209E
:100F200000F008F803F05CFC0023184680BD00BF09
:100F3000003C024080B582B000AF7860124B1A6866
:100F4000124B1B7819464FF47A73B3FBF1F3B2FBE3
:100F5000F3F3184600F02DFD0346002B01D00123CA
:100F60000EE07B680F2B0AD8002279684FF0FF3023
:100F700000F0F5FC064A7B681360002300E00123C3
:100F800018460837BD4680BD080000200400002038
:100F90000000002080B400AF064B1B781A46064BB9
:100FA0001B681344044A136000BFBD465DF8047B10
:100FB000704700BF040000200402002080B400AF8E
:100FC000034B1B681846BD465DF8047B704700BFA5
:100FD0000402002080B584B000AF7860FFF7EEFF18
:100FE000B8607B68FB60FB68B3F1FF3F05D0094B3D
:100FF0001B781A46FB681344FB6000BFFFF7DEFF57
:101000000246BB68D31AFA689A42F7D800BF103775
:10101000BD4680BD0400002080B584B000AF78607C
:101020000023FB737B68002B01D1012333E07B6835
:101030001B6C002B09D17B6800225A647B6800225C
:1010400083F83C20786803F0F3FB7B681B6C03F0AB
:101050001003002B18D17B681B6C23F4885323F0FA
:10106000020343F002027B681A64786800F02EFAEB
:101070007B6800225A647B681B6C23F0030343F0F7
:1010800001027B681A6401E00123FB737B68002284
:1010900083F83C20FB7B18461037BD4680BD00001E
:1010A00080B586B000AFF860B9607A6000233B611C
:1010B000FB6893F83C30012B01D10223B0E0FB68C0
:1010C000012283F83C20FB681B689B6803F0010346
:1010D000012B18D0FB681B689A68FB681B6842F0FC
:1010E00001029A60504B1B68504AA2FB03239A0CE2
:1010F00013465B0013443B6102E03B69013B3B61EB
:101100003B69002BF9D1FB681B689B6803F0010366
:10111000002B00F08480FB681B6C23F4E06323F059
:10112000010343F48072FB681A64FB681B685B6808
:1011300003F48063002B07D0FB681B6C23F440533F
:1011400043F48052FB681A64FB681B6C03F4805301
:10115000002B06D0FB685B6C23F00602FB685A6428
:1011600002E0FB6800225A64FB68002283F83C20FE
:101170002F4B7B61FB689B6B2E4ADA63FB689B6B92
:101180002D4A1A64FB689B6B2C4ADA64FB681B6867
:101190006FF022021A60FB681B685A68FB681B68C4
:1011A00042F080625A60FB681B689A68FB681B68A3
:1011B00042F480729A60FB68986BFB681B684C3342
:1011C0001946BA687B6800F0AFFC7B695B6803F086
:1011D0001F03002B0FD1FB681B689B6803F0405373
:1011E000002B1CD1FB681B689A68FB681B6842F0E7
:1011F00080429A6013E0FB681B68114A93420ED14B
:10120000FB681B689B6803F04053002B07D1FB6809
:101210001B689A68FB681B6842F080429A60002352
:1012200018461837BD4680BD0800002083DE1B43EA
:1012300000230140C1160008671700088317000843
:101240000020014080B483B000AF786000BF0C374D
:10125000BD465DF8047B704780B483B000AF786012
:1012600000BF0C37BD465DF8047B704780B483B087
:1012700000AF786000BF0C37BD465DF8047B704757
:1012800080B485B000AF786039600023BB607B68B4
:1012900093F83C30012B01D1022307E17B68012246
:1012A00083F83C203B681B68092B25D97B681B68A9
:1012B000D9683B681B689BB21A4613465B0013440F
:1012C0001E3B072202FA03F3DA437B681B680A40DD
:1012D000DA607B681B68D9683B689A683B681B6862
:1012E0009BB2184603465B0003441E3B9A407B6852
:1012F0001B680A43DA6022E07B681B6819693B6857
:101300001B689BB21A4613465B001344072202FA7D
:1013100003F3DA437B681B680A401A617B681B6829
:1013200019693B689A683B681B689BB2184603467C
:101330005B0003449A407B681B680A431A613B6860
:101340005B68062B24D87B681B68596B3B685A681E
:1013500013469B001344053B1F2202FA03F3DA43B2
:101360007B681B680A405A637B681B68596B3B6843
:101370001B689BB218463B685A6813469B0013448F
:10138000053B00FA03F27B681B680A435A634CE092
:101390003B685B680C2B24D87B681B68196B3B6827
:1013A0005A6813469B001344233B1F2202FA03F39F
:1013B000DA437B681B680A401A637B681B68196BF9
:1013C0003B681B689BB218463B685A6813469B00F3
:1013D0001344233B00FA03F27B681B680A431A6339
:1013E00023E07B681B68D96A3B685A6813469B00F8
:1013F0001344413B1F2202FA03F3DA437B681B6864
:101400000A40DA627B681B68D96A3B681B689BB23A
:1014100018463B685A6813469B001344413B00FA48
:1014200003F27B681B680A43DA62234BFB607B682C
:101430001B68224A934209D13B681B68122B05D1D5
:10144000FB685B6843F48002FB685A607B681B683A
:101450001A4A934225D13B681B68194A934203D02C
:101460003B681B68112B1CD1FB685B6843F40002CE
:10147000FB685A603B681B68114A934211D1114BBB
:101480001B68114AA2FB03239A0C13469B001344CA
:101490005B00BB6002E0BB68013BBB60BB68002B2C
:1014A000F9D17B68002283F83C20002318461437CA
:1014B000BD465DF8047B70470023014000200140D9
:1014C000120000100800002083DE1B4380B485B0AA
:1014D00000AF7860784BFB60FB685B6823F44032B8
:1014E000FB685A60FB685A687B685B681A43FB6854
:1014F0005A607B681B685A687B681B6822F480729C
:101500005A607B681B6859687B681B691A027B6894
:101510001B680A435A607B681B685A687B681B68B3
:1015200022F040725A607B681B6859687B689A6831
:101530007B681B680A435A607B681B689A687B68F3
:101540001B6822F400629A607B681B6899687B685C
:10155000DA687B681B680A439A607B689B6A574A13
:10156000934222D07B681B689A687B681B6822F0D4
:1015700070629A607B681B6899687B689A6A7B686E
:101580001B680A439A607B681B689A687B681B68C3
:1015900022F040529A607B681B6899687B68DA6A1F
:1015A0007B681B680A439A600FE07B681B689A6837
:1015B0007B681B6822F070629A607B681B689A687F
:1015C0007B681B6822F040529A607B681B689A68AF
:1015D0007B681B6822F002029A607B681B6899682E
:1015E0007B689B695A007B681B680A439A607B682A
:1015F0001B6A002B1BD07B681B685A687B681B68C2
:1016000042F400625A607B681B685A687B681B68FA
:1016100022F460425A607B681B6859687B685B6A89
:10162000013B5A037B681B680A435A6007E07B68EA
:101630001B685A687B681B6822F400625A607B68EA
:101640001B68DA6A7B681B6822F47002DA627B68C6
:101650001B68D96A7B68DB69013B1A057B681B68DC
:101660000A43DA627B681B689A687B681B6822F40D
:1016700000729A607B681B6899687B681B6B5A02D2
:101680007B681B680A439A607B681B689A687B6862
:101690001B6822F480629A607B681B6899687B688B
:1016A0005B699A027B681B680A439A6000BF143723
:1016B000BD465DF8047B7047002301400100000F28
:1016C00080B584B000AF78607B689B6BFB60FB6883
:1016D0001B6C03F05003002B3CD1FB681B6C43F4E4
:1016E0000072FB681A64FB681B689B6803F0405338
:1016F000002B2BD1FB689B69002B27D1FB681B6853
:10170000DB6A03F47003002B06D0FB681B689B6840
:1017100003F48063002B19D1FB681B685A68FB68CF
:101720001B6822F020025A60FB681B6C23F4807255
:10173000FB681A64FB681B6C03F48053002B05D113
:10174000FB681B6C43F00102FB681A64F868FFF742
:1017500079FD04E0FB689B6BDB6C7868984700BF01
:101760001037BD4680BD80B584B000AF78607B681F
:101770009B6BFB60F868FFF76FFD00BF1037BD463D
:1017800080BD80B584B000AF78607B689B6BFB60E8
:10179000FB6840221A64FB685B6C43F00402FB6840
:1017A0005A64F868FFF762FD00BF1037BD4680BD80
:1017B00080B485B000AF78607B6803F00703FB60FE
:1017C0000C4BDB68BB60BA684FF6FF031340BB608D
:1017D000FB681A02BB68134343F0BF6343F4003352
:1017E000BB60044ABB68D36000BF1437BD465DF8D8
:1017F000047B704700ED00E080B400AF044BDB6871
:101800001B0A03F007031846BD465DF8047B7047CA
:1018100000ED00E080B483B000AF0346FB71FB79BC
:1018200003F01F02074997F907305B09012000FA0E
:1018300002F241F8232000BF0C37BD465DF8047B5F
:10184000704700BF00E100E080B483B000AF034602
:101850003960FB7197F90730002B0BDA3B68DAB27D
:101860000C49FB7903F00F03043B1201D2B20B4485
:101870001A7609E03B68DAB2074997F90730120196
:10188000D2B20B4483F8002300BF0C37BD465DF88D
:10189000047B704700ED00E000E100E080B489B017
:1018A00000AFF860B9607A60FB6803F00703FB6182
:1018B000FB69C3F10703042B28BF0423BB61FB6949
:1018C0000433062B02D9FB69033B00E000237B6154
:1018D0004FF0FF32BB6902FA03F3DA43BB681A40E8
:1018E0007B699A404FF0FF317B6901FA03F3D943DA
:1018F0007B680B40134318462437BD465DF8047BD4
:101900007047000080B582B000AF78607B68013B13
:10191000B3F1807F01D301230FE00A4A7B68013BCA
:1019200053600F214FF0FF30FFF78EFF054B002271
:101930009A60044B07221A60002318460837BD46F8
:1019400080BD00BF10E000E080B582B000AF7860DD
:101950007868FFF72DFF00BF0837BD4680BD80B512
:1019600086B000AF0346B9607A60FB7300237B61E9
:10197000FFF742FF78617A68B9687869FFF78EFFF0
:10198000024697F90F3011461846FFF75DFF00BF7A
:101990001837BD4680BD80B582B000AF0346FB71ED
:1019A00097F907301846FFF735FF00BF0837BD46E7
:1019B00080BD80B582B000AF78607868FFF7A2FF85
:1019C000034618460837BD4680BD000080B586B086
:1019D00000AF786000237B61FFF7F0FA38617B6825
:1019E000002B01D1012399E07B68002283F8342089
:1019F0007B68022283F835207B681B681A687B6845
:101A00001B6822F001021A600FE0FFF7D7FA0246C6
:101A10003B69D31A052B08D97B6820225A657B685D
:101A2000032283F83520032378E07B681B681B685A
:101A300003F00103002BE8D17B681B681B687B6106
:101A40007A69384B13407B617B685A687B689B6876
:101A50001A437B68DB681A437B681B691A437B68FF
:101A60005B691A437B689B691A437B68DB691A438D
:101A70007B681B6A13437A6913437B617B685B6AEB
:101A8000042B07D17B68DA6A7B681B6B13437A6986
:101A900013437B617B681B687A691A607B681B68EB
:101AA0005B697B617B6923F007037B617B685B6A11
:101AB0007A6913437B617B685B6A042B17D17B686F
:101AC0009B6A7A6913437B617B68DB6A002B0ED0CB
:101AD000786800F099FA0346002B08D07B68402212
:101AE0005A657B68012283F83520012316E07B6864
:101AF0001B687A695A61786800F050FA0346FB6007
:101B00007B68DB6D3F229A40FB689A607B6800220D
:101B10005A657B68012283F8352000231846183760
:101B2000BD4680BD3F8010F080B586B000AFF86044
:101B3000B9607A603B600023FB75FB689B6D3B617D
:101B4000FB6893F83430012B01D1022348E0FB6895
:101B5000012283F83420FB6893F83530DBB2012B87
:101B600037D1FB68022283F83520FB6800225A65D2
:101B70003B687A68B968F86800F0E2F9FB68DB6DE9
:101B80003F229A403B699A60FB681B681A68FB68B1
:101B90001B6842F016021A60FB681B685A69FB68F2
:101BA0001B6842F080025A61FB681B6C002B07D057
:101BB000FB681B681A68FB681B6842F008021A6021
:101BC000FB681B681A68FB681B6842F001021A6018
:101BD00005E0FB68002283F834200223FB75FB7DBF
:101BE00018461837BD4680BD80B483B000AF78601A
:101BF0007B6893F83530DBB2022B04D07B688022FF
:101C00005A6501230CE07B68052283F835207B6848
:101C10001B681A687B681B6822F001021A600023A7
:101C200018460C37BD465DF8047B704780B586B01A
:101C300000AF78600023BB60924B1B68924AA2FB06
:101C400003239B0A7B617B689B6D3B613B691B683F
:101C5000FB607B68DB6D08229A40FB681340002B19
:101C60001AD07B681B681B6803F00403002B13D099
:101C70007B681B681A687B681B6822F004021A6084
:101C80007B68DB6D08229A403B699A607B685B6DDC
:101C900043F001027B685A657B68DB6D01229A4044
:101CA000FB681340002B12D07B681B685B6903F054
:101CB0008003002B0BD07B68DB6D01229A403B69CF
:101CC0009A607B685B6D43F002027B685A657B68B3
:101CD000DB6D04229A40FB681340002B12D07B6816
:101CE0001B681B6803F00203002B0BD07B68DB6DC5
:101CF00004229A403B699A607B685B6D43F0040262
:101D00007B685A657B68DB6D10229A40FB68134044
:101D1000002B43D07B681B681B6803F00803002B73
:101D20003CD07B68DB6D10229A403B699A607B68EF
:101D30001B681B6803F48023002B18D07B681B688A
:101D40001B6803F40023002B08D17B681B6C002B5D
:101D500024D07B681B6C786898471FE07B689B6C7D
:101D6000002B1BD07B689B6C7868984716E07B68DB
:101D70001B681B6803F48073002B07D17B681B680A
:101D80001A687B681B6822F008021A607B681B6C6B
:101D9000002B03D07B681B6C786898477B68DB6DF1
:101DA00020229A40FB681340002B00F08E807B6855
:101DB0001B681B6803F01003002B00F086807B6813
:101DC000DB6D20229A403B699A607B6893F835303E
:101DD000DBB2052B36D17B681B681A687B681B68F1
:101DE00022F016021A607B681B685A697B681B68C0
:101DF00022F080025A617B681B6C002B03D17B6848
:101E00009B6C002B07D07B681B681A687B681B687B
:101E100022F008021A607B68DB6D3F229A403B6922
:101E20009A607B68002283F834207B68012283F863
:101E300035207B681B6D002B7DD07B681B6D78681F
:101E4000984778E07B681B681B6803F48023002BAD
:101E50001CD07B681B681B6803F40023002B08D18F
:101E60007B685B6C002B30D07B685B6C7868984734
:101E70002BE07B68DB6B002B27D07B68DB6B786803
:101E8000984722E008000020B5814E1B7B681B6844
:101E90001B6803F48073002B0FD17B681B681A68E2
:101EA0007B681B6822F010021A607B68002283F8AE
:101EB00034207B68012283F835207B68DB6B002BA4
:101EC00003D07B68DB6B786898477B685B6D002B81
:101ED00032D07B685B6D03F00103002B22D07B685E
:101EE000052283F835207B681B681A687B681B68AD
:101EF00022F001021A60BB680133BB607A699A4222
:101F000007D37B681B681B6803F00103002BF2D129
:101F100000E000BF7B68002283F834207B68012248
:101F200083F835207B68DB6C002B05D07B68DB6C8D
:101F30007868984700E000BF1837BD4680BD00BFF5
:101F400080B485B000AFF860B9607A603B60FB6830
:101F50001B681A68FB681B6822F480221A60FB6801
:101F60001B683A685A60FB689B68402B08D1FB6885
:101F70001B687A689A60FB681B68BA68DA6007E0D9
:101F8000FB681B68BA689A60FB681B687A68DA604D
:101F900000BF1437BD465DF8047B704780B485B040
:101FA00000AF78607B681B68DBB2103B144AA2FB71
:101FB00003231B09FB60134AFB6813441B781A4672
:101FC0007B68DA65FB68032B09D97B681B6823F4FF
:101FD0007F7323F003031A1D7B689A6507E07B6813
:101FE0001B6823F47F7323F003037A6893657B688F
:101FF0009B6D18461437BD465DF8047B704700BFE3
:10200000ABAAAAAA786C000880B485B000AF78604B
:102010000023FB737B689B6ABB607B689B69002B1A
:102020001FD1BB68032B55D801A252F823F000BF83
:10203000412000085320000841200008D520000856
:102040007B68DB6A03F08073002B45D00123FB73B0
:1020500042E07B68DB6AB3F1C07F3FD10123FB73B1
:102060003CE07B689B69B3F5005F21D1BB68032B23
:1020700036D801A252F823F0892000088F200008EA
:1020800089200008A12000080123FB732FE07B6852
:10209000DB6A03F08073002B24D00123FB7321E063
:1020A0007B68DB6AB3F1C07F1ED10123FB731BE0A9
:1020B000BB68022B02D9032B03D018E00123FB736A
:1020C00015E07B68DB6A03F08073002B0ED00123E0
:1020D000FB730BE000BF0AE000BF08E000BF06E0B2
:1020E00000BF04E000BF02E000BF00E000BFFB7BD8
:1020F00018461437BD465DF8047B704780B489B03C
:1021000000AF7860396000237B6100233B610023CE
:10211000BB610023FB6165E10122FB6902FA03F365
:102120007B613B681B687A6913403B613A697B6954
:102130009A4240F054813B685B68022B03D03B68B5
:102140005B68122B23D1FB69DA087B68083253F8ED
:102150002230BB61FB6903F007039B000F2202FAE8
:1021600003F3DB43BA691340BB613B681A69FB693F
:1021700003F007039B0002FA03F3BA691343BB6140
:10218000FB69DA087B680832B96943F822107B687A
:102190001B68BB61FB695B00032202FA03F3DB43AC
:1021A000BA691340BB613B685B6803F00302FB69DB
:1021B0005B0002FA03F3BA691343BB617B68BA6937
:1021C0001A603B685B68012B0BD03B685B68022B95
:1021D00007D03B685B68112B03D03B685B68122B10
:1021E00030D17B689B68BB61FB695B00032202FA0C
:1021F00003F3DB43BA691340BB613B68DA68FB69F0
:102200005B0002FA03F3BA691343BB617B68BA69E6
:102210009A607B685B68BB610122FB6902FA03F389
:10222000DB43BA691340BB613B685B681B0903F081
:102230000102FB6902FA03F3BA691343BB617B68CD
:10224000BA695A607B68DB68BB61FB695B0003228B
:1022500002FA03F3DB43BA691340BB613B689A6837
:10226000FB695B0002FA03F3BA691343BB617B6845
:10227000BA69DA603B685B6803F08053002B00F0BA
:10228000AE800023FB605C4B5B6C5B4A43F4804395
:102290005364594B5B6C03F48043FB60FB68574A03
:1022A000FB699B08023352F82330BB61FB6903F0E2
:1022B00003039B000F2202FA03F3DB43BA691340C6
:1022C000BB617B684E4A934225D07B684D4A93425E
:1022D0001FD07B684C4A934219D07B684B4A93428B
:1022E00013D07B684A4A93420DD07B68494A934297
:1022F00007D07B68484A934201D106230CE00723AC
:102300000AE0052308E0042306E0032304E0022397
:1023100002E0012300E00023FA6902F003029200C8
:102320009340BA691343BB613449FB699B0802338C
:10233000BA6941F82320394B1B68BB613B69DB4319
:10234000BA691340BB613B685B6803F48033002BC0
:1023500003D0BA693B691343BB61304ABB69136060
:102360002E4B5B68BB613B69DB43BA691340BB61C1
:102370003B685B6803F40033002B03D0BA693B6908
:102380001343BB61254ABB695360244B9B68BB6107
:102390003B69DB43BA691340BB613B685B6803F48C
:1023A0008013002B03D0BA693B691343BB611B4AFE
:1023B000BB699360194BDB68BB613B69DB43BA695E
:1023C0001340BB613B685B6803F40013002B03D030
:1023D000BA693B691343BB61104ABB69D360FB69AF
:1023E0000133FB61FB690F2B7FF696AE00BF2437EC
:1023F000BD465DF8047B704700380240003801405C
:10240000000002400004024000080240000C0240AC
:10241000001002400014024000180240003C01403D
:1024200080B483B000AF78600B467B8013467B702E
:102430007B78002B03D07A887B689A6103E07B88E5
:102440001A047B689A6100BF0C37BD465DF8047BB7
:102450007047000080B584B000AF786039607B6859
:10246000002B01D10123CAE0674B1B6803F00F0367
:102470003A689A420CD9644B3A68D2B21A70624BED
:102480001B6803F00F033A689A4201D00123B6E0BB
:102490007B681B6803F00203002B20D07B681B685D
:1024A00003F00403002B05D0584B9B68574A43F4B4
:1024B000E05393607B681B6803F00803002B05D092
:1024C000524B9B68514A43F4604393604F4B9B6867
:1024D00023F0F0027B689B684C4913438B607B6858
:1024E0001B6803F00103002B44D07B685B68012B61
:1024F00007D1464B1B6803F40033002B19D101238D
:102500007DE07B685B68022B03D07B685B68032BF4
:1025100007D13E4B1B6803F00073002B09D1012348
:102520006DE03A4B1B6803F00203002B01D101233D
:1025300065E0364B9B6823F003027B685B68334998
:1025400013438B60FEF73AFDF8600AE0FEF736FDB4
:102550000246FB68D31A41F28832934201D9032321
:102560004DE02A4B9B6803F00C027B685B689B0084
:102570009A42EBD1244B1B6803F00F033A689A424E
:102580000CD2214B3A68D2B21A701F4B1B6803F071
:102590000F033A689A4201D0012330E07B681B6840
:1025A00003F00403002B08D0184B9B6823F4E0527F
:1025B0007B68DB68154913438B607B681B6803F0FD
:1025C0000803002B09D0114B9B6823F460427B6801
:1025D0001B69DB000D4913438B6000F051F8014685
:1025E0000A4B9B681B0903F00F03094AD35C21FACD
:1025F00003F3084A13600020FEF79CFC00231846F2
:102600001037BD4680BD00BF003C0240003802408C
:10261000BC6C00080800002080B400AF034B1B68AE
:102620001846BD465DF8047B704700BF08000020D7
:1026300080B500AFFFF7F0FF0146054B9B689B0A92
:1026400003F00703034AD35C21FA03F3184680BD65
:1026500000380240CC6C000880B500AFFFF7DCFF0B
:102660000146054B9B685B0B03F00703034AD35CF1
:1026700021FA03F3184680BD00380240CC6C0008F4
:10268000F0B587B000AF0023FB6000237B6100231F
:10269000BB6000237B6000233B61C64B9B6803F05B
:1026A0000C030C2B00F27E8101A252F823F000BF34
:1026B000E5260008A5290008A5290008A529000885
:1026C000EB260008A5290008A5290008A52900086F
:1026D000F1260008A5290008A5290008A529000859
:1026E0004D280008B44B3B615FE1B44B3B615CE1BA
:1026F000B04B5B6803F03F03FB60AE4B5B6803F4D9
:102700008003002B4AD0AB4B5B689B094FF0000461
:1027100040F2FF114FF0000203EA010504EA02064D
:10272000294632464FF000034FF00004540144EABA
:10273000D1644B0119462246491B62EB06024FF059
:1027400000034FF00004940144EA91648B015B1A8A
:1027500064EB02044FF000014FF00002E20042EA95
:102760005372D9000B4614465B1944EB06044FF034
:1027700000014FF00002620242EAD35259020B46B6
:10278000144618462146FB684FF000041A462346BB
:10279000FDF7FAFE03460C467B6149E0854B5B681A
:1027A0009B094FF0000440F2FF114FF0000203EAD2
:1027B000010504EA0206294632464FF000034FF0B5
:1027C0000004540144EAD1644B0119462246491BD6
:1027D00062EB06024FF000034FF00004940144EA5C
:1027E00091648B015B1A64EB02044FF000014FF01F
:1027F0000002E20042EA5372D9000B4614465B190C
:1028000044EB06044FF000014FF00002A20242EA3E
:10281000935299020B46144618462146FB684FF026
:1028200000041A462346FDF7AFFE03460C467B61C3
:10283000604B5B681B0C03F0030301335B00BB6060
:102840007A69BB68B2FBF3F33B61AEE0594B5B685E
:1028500003F03F03FB60574B5B6803F48003002BDE
:102860004AD0544B5B689B094FF0000440F2FF11C3
:102870004FF0000203EA010504EA02062946324647
:102880004FF000034FF00004540144EAD1644B01BF
:1028900019462246491B62EB06024FF000034FF037
:1028A0000004940144EA91648B015B1A64EB020416
:1028B0004FF000014FF00002E20042EA5372D900EB
:1028C0000B4614465B1944EB06044FF000014FF031
:1028D0000002620242EAD35259020B4614461846DD
:1028E0002146FB684FF000041A462346FDF74CFED4
:1028F00003460C467B6149E02E4B5B689B094FF019
:10290000000440F2FF114FF0000203EA010504EA5F
:102910000206294632464FF000034FF000045401EE
:1029200044EAD1644B0119462246491B62EB060278
:102930004FF000034FF00004940144EA91648B01CE
:102940005B1A64EB02044FF000014FF00002E2005A
:1029500042EA5372D9000B4614465B1944EB060455
:102960004FF000014FF00002A20242EA9352990296
:102970000B46144618462146FB684FF000041A46E1
:102980002346FDF701FE03460C467B61094B5B685D
:102990001B0F03F007037B607A697B68B2FBF3F3DC
:1029A0003B6102E0044B3B6100BF3B6918461C37AA
:1029B000BD46F0BD003802400024F40000127A0049
:1029C00080B586B000AF786000233B617B681B68F0
:1029D00003F00103002B00F08380954B9B6803F00C
:1029E0000C03042B19D0924B9B6803F00C03082BAB
:1029F00006D18F4B5B6803F48003B3F5800F0CD0D6
:102A00008B4B9B6803F00C030C2B12D1884B5B683B
:102A100003F48003B3F5800F0BD1854B1B6803F4DF
:102A20000033002B5BD07B685B68002B57D1012300
:102A300016E27B685B68B3F5803F06D17C4B1B6870
:102A40007B4A43F4803313601DE07B685B68B3F519
:102A5000A02F0CD1764B1B68754A43F4802313607A
:102A6000734B1B68724A43F4803313600BE0704B66
:102A70001B686F4A23F4803313606D4B1B686C4AEC
:102A800023F4802313607B685B68002B13D0FEF770
:102A900095FA386108E0FEF791FA02463B69D31ACD
:102AA000642B01D90323DBE1614B1B6803F4003382
:102AB000002BF0D014E0FEF781FA386108E0FEF751
:102AC0007DFA02463B69D31A642B01D90323C7E17F
:102AD000574B1B6803F40033002BF0D100E000BF1C
:102AE0007B681B6803F00203002B6FD0504B9B6880
:102AF00003F00C03002B17D04D4B9B6803F00C0325
:102B0000082B05D14A4B5B6803F48003002B0BD0E4
:102B1000474B9B6803F00C030C2B1CD1444B5B68A8
:102B200003F48003002B16D1414B1B6803F0020312
:102B3000002B05D07B68DB68012B01D001238FE1DE
:102B40003B4B1B6823F0F8027B681B69DB003849AC
:102B500013430B603AE07B68DB68002B20D0354BD9
:102B600001221A60FEF72AFA386108E0FEF726FA19
:102B700002463B69D31A022B01D9032370E12C4B87
:102B80001B6803F00203002BF0D0294B1B6823F0D5
:102B9000F8027B681B69DB00254913430B6015E0D5
:102BA000244B00221A60FEF709FA386108E0FEF7AC
:102BB00005FA02463B69D31A022B01D903234FE1E0
:102BC0001B4B1B6803F00203002BF0D17B681B68D2
:102BD00003F00803002B37D07B685B69002B16D00D
:102BE000154B01221A60FEF7E9F9386108E0FEF79B
:102BF000E5F902463B69D31A022B01D903232FE1E1
:102C00000B4B5B6F03F00203002BF0D01CE00A4B70
:102C100000221A60FEF7D2F938610FE0FEF7CEF914
:102C200002463B69D31A022B08D9032318E100BFDF
:102C30000038024000004742800E47428A4B5B6FDB
:102C400003F00203002BE9D17B681B6803F0040347
:102C5000002B00F097800023FB75834B1B6C03F067
:102C60008053002B0FD10023FB607F4B1B6C7E4AEF
:102C700043F0805313647C4B1B6C03F08053FB6068
:102C8000FB680123FB75794B1B6803F48073002BF1
:102C900018D1764B1B68754A43F480731360FEF7B6
:102CA0008DF9386108E0FEF789F902463B69D31ACD
:102CB000022B01D90323D3E06C4B1B6803F4807310
:102CC000002BF0D07B689B68012B06D1664B1B6FF5
:102CD000654A43F0010313671CE07B689B68052B82
:102CE0000CD1614B1B6F604A43F0040313675E4BCA
:102CF0001B6F5D4A43F0010313670BE05A4B1B6FD8
:102D0000594A23F001031367574B1B6F564A23F0B0
:102D1000040313677B689B68002B15D0FEF74EF900
:102D200038610AE0FEF74AF902463B69D31A41F2DC
:102D30008832934201D9032392E04B4B1B6F03F07F
:102D40000203002BEED014E0FEF738F938610AE0F8
:102D5000FEF734F902463B69D31A41F288329342B6
:102D600001D903237CE0404B1B6F03F00203002BCF
:102D7000EED1FB7D012B05D13B4B1B6C3A4A23F076
:102D8000805313647B689B69002B68D0364B9B682B
:102D900003F00C03082B60D07B689B69022B45D1A4
:102DA000334B00221A60FEF709F9386108E0FEF79C
:102DB00005F902463B69D31A022B01D903234FE0E0
:102DC000294B1B6803F00073002BF0D17B68DA6994
:102DD0007B681B6A1A437B685B6A9B011A437B68AA
:102DE0009B6A5B08013B1B041A437B68DB6A1B067A
:102DF0001A437B681B6B1B071B4913434B601C4B1F
:102E000001221A60FEF7DAF8386108E0FEF7D6F81A
:102E100002463B69D31A022B01D9032320E0124B4F
:102E20001B6803F00073002BF0D018E0104B002259
:102E30001A60FEF7C3F8386108E0FEF7BFF80246F3
:102E40003B69D31A022B01D9032309E0064B1B6807
:102E500003F00073002BF0D101E0012300E0002318
:102E600018461837BD4680BD00380240007000404B
:102E70006000474280B582B000AF78607B68002B6D
:102E800001D101233FE07B6893F83930DBB2002B9E
:102E900006D17B68002283F83820786801F042FD73
:102EA0007B68242283F839207B681B68DA687B689A
:102EB0001B6822F40052DA60786800F083FB7B68BC
:102EC0001B681A697B681B6822F490421A617B6850
:102ED0001B685A697B681B6822F02A025A617B686A
:102EE0001B68DA687B681B6842F40052DA607B6812
:102EF0000022DA637B68202283F839207B68202255
:102F000083F83A20002318460837BD4680BD80B5B7
:102F100088B002AFF860B9603B601346FB800023C5
:102F20007B61FB6893F83930DBB2202B40F0838063
:102F3000BB68002B02D0FB88002B01D101237BE072
:102F4000FB6893F83830012B01D1022374E0FB6851
:102F5000012283F83820FB680022DA63FB68212213
:102F600083F83920FEF72AF87861FB68FA889A849A
:102F7000FB68FA88DA8442E0FB68DB8C9BB2013B99
:102F80009AB2FB68DA84FB689B68B3F5805F22D154
:102F90003B6800937B6900228021F86800F0AEF95D
:102FA0000346002B01D0032346E0BB683B613B692D
:102FB0001B881A46FB681B68C2F308025A60FB684C
:102FC0001B69002B03D1BB680233BB6017E0BB68F1
:102FD0000133BB6013E03B6800937B6900228021D2
:102FE000F86800F08BF90346002B01D0032323E09F
:102FF000BB685A1CBA601A78FB681B685A60FB6889
:10300000DB8C9BB2002BB7D13B6800937B6900221D
:103010004021F86800F072F90346002B01D0032329
:103020000AE0FB68202283F83920FB68002283F83D
:103030003820002300E0022318461837BD4680BD23
:1030400080B485B000AFF860B9601346FB80FB68C0
:1030500093F83A30DBB2202B38D1BB68002B02D07A
:10306000FB88002B01D1012331E0FB6893F8383055
:10307000012B01D102232AE0FB68012283F83820CA
:10308000FB68BA689A62FB68FA889A85FB68FA88D6
:10309000DA85FB680022DA63FB68222283F83A2093
:1030A000FB68002283F83820FB681B685A69FB68BC
:1030B0001B6842F001025A61FB681B68DA68FB6812
:1030C0001B6842F49072DA60002300E00223184685
:1030D0001437BD465DF8047B7047000080B588B0AA
:1030E00000AF78607B681B681B68FB617B681B68AE
:1030F000DB68BB617B681B685B697B6100233B61AC
:103100000023FB60FB6903F00F033B613B69002B6D
:103110000DD1FB6903F02003002B08D0BB6903F03D
:103120002003002B03D0786800F0D2F9CCE03B6993
:10313000002B00F0AB807B6903F00103002B05D16D
:10314000BB6903F49073002B00F0A080FB6903F0CF
:103150000103002B0AD0BB6903F48073002B05D058
:103160007B68DB6B43F001027B68DA63FB6903F089
:103170000403002B0AD07B6903F00103002B05D068
:103180007B68DB6B43F002027B68DA63FB6903F068
:103190000203002B0AD07B6903F00103002B05D04A
:1031A0007B68DB6B43F004027B68DA63FB6903F046
:1031B0000803002B0AD07B6903F00103002B05D024
:1031C0007B68DB6B43F008027B68DA637B68DB6B50
:1031D000002B78D0FB6903F02003002B07D0BB69DC
:1031E00003F02003002B02D0786800F071F97B68AF
:1031F0001B685B6903F04003002B14BF012300230D
:10320000DBB2FB607B68DB6B03F00803002B02D1B1
:10321000FB68002B31D0786800F0BAF87B681B6837
:103220005B6903F04003002B23D07B681B685A695D
:103230007B681B6822F040025A617B685B6B002B45
:1032400013D07B685B6B224A1A657B685B6B184600
:10325000FEF7CAFC0346002B16D07B685B6B1B6D28
:103260007A68526B104698470EE0786800F03CF898
:103270000AE0786800F038F806E0786800F034F882
:103280007B680022DA631EE000BF1CE0FB6903F0EC
:103290008003002B08D0BB6903F08003002B03D010
:1032A000786800F0A7F80FE0FB6903F04003002BFB
:1032B0000AD0BB6903F04003002B05D0786800F00A
:1032C000EFF800BF00E000BF2037BD4680BD00BF63
:1032D000CD33000880B483B000AF786000BF0C37F6
:1032E000BD465DF8047B704780B483B000AF786062
:1032F00000BF0C37BD465DF8047B704780B584B0D5
:1033000000AFF860B9603B601346FB712CE0BB690D
:10331000B3F1FF3F28D0BB69002B07D0FDF74EFE6D
:1033200002463B68D31ABA699A421DD2FB681B68F1
:10333000DA68FB681B6822F4D072DA60FB681B68ED
:103340005A69FB681B6822F001025A61FB6820225F
:1033500083F83920FB68202283F83A20FB6800229A
:1033600083F8382003230FE0FB681B681A68BB68EA
:103370001340BA689A420CBF01230023DBB21A46FD
:10338000FB799A42C3D0002318461037BD4680BD52
:1033900080B483B000AF78607B681B68DA687B68B4
:1033A0001B6822F49072DA607B681B685A697B683C
:1033B0001B6822F001025A617B68202283F83A20C0
:1033C00000BF0C37BD465DF8047B704780B584B004
:1033D00000AF78607B689B6BFB60FB680022DA853E
:1033E000FB680022DA84F868FFF77EFF00BF103721
:1033F000BD4680BD80B485B000AF78607B6893F82F
:103400003930DBB2212B44D17B689B68B3F5805FF8
:103410001AD17B681B6AFB60FB681B881A467B68B5
:103420001B68C2F308025A607B681B69002B05D138
:103430007B681B6A9A1C7B681A620EE07B681B6AB9
:103440005A1C7B681A6208E07B681B6A591C7A6800
:1034500011621A787B681B685A607B68DB8C9BB2B0
:10346000013B9BB27A681946D184002B0FD17B684F
:103470001B68DA687B681B6822F08002DA607B6870
:103480001B68DA687B681B6842F04002DA60002340
:1034900000E0022318461437BD465DF8047B7047F0
:1034A00080B582B000AF78607B681B68DA687B68A3
:1034B0001B6822F04002DA607B68202283F8392002
:1034C0007868FFF707FF002318460837BD4680BD20
:1034D00080B584B000AF78607B6893F83A30DBB297
:1034E000222B69D17B689B68B3F5805F23D17B6811
:1034F0009B6AFB607B681B69002B0ED17B681B6895
:103500005B689BB2C3F308039AB2FB681A807B68BE
:103510009B6A9A1C7B689A6229E07B681B685B68DF
:103520009BB2DBB29AB2FB681A807B689B6A5A1C1A
:103530007B689A621BE07B681B69002B0AD17B6861
:103540001B6858687B689B6A591C7A689162C2B292
:103550001A700CE07B681B685B68DAB27B689B6A58
:10356000581C7968886202F07F02D2B21A707B68B8
:10357000DB8D9BB2013B9BB27A681946D185002B4B
:1035800018D17B681B68DA687B681B6822F490722C
:10359000DA607B681B685A697B681B6822F001024D
:1035A0005A617B68202283F83A20786800F03CFE5C
:1035B000002302E0002300E0022318461037BD4636
:1035C00080BD0000B0B584B000AF78600023FB6020
:1035D0007B681B681B69FB60FB6823F44053FB603E
:1035E0007B68DB68FA681343FB607B681B68FA68DA
:1035F0001A617B681B68DB68FB60FB6823F4164379
:1036000023F00C03FB607B689A687B681B691A4394
:103610007B685B691A437B68DB691343FA68134371
:10362000FB607B681B68FA68DA607B681B685B6913
:10363000FB60FB6823F44073FB607B689B69FA685E
:103640001343FB607B681B68FA685A617B68DB691F
:10365000B3F5004F40F0E4807B681B68AB4A9342AF
:1036600004D07B681B68AA4A93426CD1FEF7F4FF32
:10367000024613469B0013449A001A447B685B6819
:103680005B00B2FBF3F3A34AA2FB03235B091C011B
:10369000FEF7E2FF024613469B0013449A001A44C9
:1036A0007B685B685B00B2FBF3F5FEF7D5FF024673
:1036B00013469B0013449A001A447B685B685B00C6
:1036C000B2FBF3F3934AA2FB03235B09642202FBE0
:1036D00003F3EB1ADB0032338E4AA2FB03235B09B0
:1036E0005B0003F4F8731C44FEF7B6FF0246134672
:1036F0009B0013449A001A447B685B685B00B2FB32
:10370000F3F5FEF7A9FF024613469B0013449A0007
:103710001A447B685B685B00B2FBF3F37D4AA2FB53
:1037200003235B09642202FB03F3EB1ADB00323351
:10373000784AA2FB03235B0903F007027B681B683E
:1037400022449A6054E1FEF773FF024613469B0041
:1037500013449A001A447B685B685B00B2FBF3F386
:103760006C4AA2FB03235B091C01FEF761FF0246C2
:1037700013469B0013449A001A447B685B685B0005
:10378000B2FBF3F5FEF754FF024613469B001344C9
:103790009A001A447B685B685B00B2FBF3F35D4AF6
:1037A000A2FB03235B09642202FB03F3EB1ADB0099
:1037B0003233584AA2FB03235B095B0003F4F8731E
:1037C0001C44FEF735FF024613469B0013449A0043
:1037D0001A447B685B685B00B2FBF3F5FEF728FFD9
:1037E000024613469B0013449A001A447B685B68A8
:1037F0005B00B2FBF3F3474AA2FB03235B0964229D
:1038000002FB03F3EB1ADB003233424AA2FB032331
:103810005B0903F007027B681B6822449A60E7E0BB
:103820007B681B68394A934204D07B681B68384A1E
:10383000934271D1FEF710FF024613469B001344DA
:103840009A001A447B685B689B00B2FBF3F3314A31
:10385000A2FB03235B091C01FEF7FEFE0246134692
:103860009B0013449A001A447B685B689B00B2FB80
:10387000F3F5FEF7F1FE024613469B0013449A004F
:103880001A447B685B689B00B2FBF3F3214AA2FBFE
:1038900003235B09642202FB03F3EB1A1B0132339F
:1038A0001C4AA2FB03235B0903F0F0031C44FEF750
:1038B000D3FE024613469B0013449A001A447B68C9
:1038C0005B689B00B2FBF3F5FEF7C6FE02461346AB
:1038D0009B0013449A001A447B685B689B00B2FB10
:1038E000F3F30C4AA2FB03235B09642202FB03F3FC
:1038F000EB1A1B013233074AA2FB03235B0903F0D7
:103900000F027B681B6822449A6071E0001001403E
:10391000001401401F85EB51FEF78AFE0246134654
:103920009B0013449A001A447B685B689B00B2FBBF
:10393000F3F3314AA2FB03235B091C01FEF778FE77
:10394000024613469B0013449A001A447B685B6846
:103950009B00B2FBF3F5FEF76BFE024613469B009D
:1039600013449A001A447B685B689B00B2FBF3F334
:10397000214AA2FB03235B09642202FB03F3EB1A37
:103980001B0132331C4AA2FB03235B0903F0F00343
:103990001C44FEF74DFE024613469B0013449A005A
:1039A0001A447B685B689B00B2FBF3F5FEF740FEB0
:1039B000024613469B0013449A001A447B685B68D6
:1039C0009B00B2FBF3F30C4AA2FB03235B096422C6
:1039D00002FB03F3EB1A1B013233074AA2FB03235A
:1039E0005B0903F00F027B681B6822449A60FFE7C3
:1039F00000BF1037BD46B0BD1F85EB51B0B5ADF56A
:103A0000007D3EAF3B1D186007F1080319211846E1
:103A100000F09EFA07F108043D1D684604F10C030E
:103A2000F122194601F0C8F894E80E00286800F069
:103A300049FA0346184607F58477BD46B0BD90B5F0
:103A400085B000AF786039600023FB7316E0FC7B23
:103A5000386800F0CAFA03461A467B6823F8242027
:103A6000FC7B386800F0C1FA034619467A68A30067
:103A700013440A465A80FB7B0133FB73FB7B022B0A
:103A8000E5D9386800F0B1FA03469AB27B689A81AA
:103A9000386800F0AAFA03469AB27B68DA8138687F
:103AA00000F080FA03461A467B681A7403213868CE
:103AB00000F0E2FA7B68143306221946386800F0F9
:103AC000ABFA7B68203303221946386800F0A4FA69
:103AD0007B68263303221946386800F09DFA7B681C
:103AE0002C3303221946386800F096FA386800F043
:103AF0007CFA03469AB27B685A86386800F075FAF9
:103B000003469AB27B689A86386800F04BFA0346FF
:103B10001A467B6883F83620386800F066FA034658
:103B20009AB27B681A87386800F03CFA03461A4656
:103B30007B6883F83A20386800F034FA03461A4666
:103B40007B6883F83B20386800F02CFA03461A465D
:103B50007B6883F83C207B683D3303221946386834
:103B600000F06DFA3B685B78442B05D03B685B78CE
:103B7000172B01D0002308E0386800F0FFF9034656
:103B8000002B01D0002300E0042318461437BD4663
:103B900090BD80B582B000AF786039607B683968CD
:103BA0001846FFF74CFF3B685B78192B4AD17B68BE
:103BB000403303221946386800F02EFA386800F0C6
:103BC000F1F97B68483303221946386800F024FA7B
:103BD000386800F00AFA03469AB27B68A3F84E20D0
:103BE0007B68503303221946386800F015FA3868AC
:103BF00000F0D8F903465AB27B6883F8562038683B
:103C000000F0D0F903465AB27B6883F85720386831
:103C100000F0C8F903461A467B6883F858203868D4
:103C200000F0C0F903461A467B6883F859207B6888
:103C30005A3303221946386800F0EEF91E2138681D
:103C400000F01AFA386800F099F90346002B01D009
:103C5000002300E0042318460837BD4680BD80B429
:103C600083B000AF786039607B683A685A607B68DF
:103C700000221A707B6800229A8100BF0C37BD4673
:103C80005DF8047B704780B483B000AF78600B466A
:103C9000FB707B689B8901339AB27B689A8100BF75
:103CA0000C37BD465DF8047B704780B483B000AF2D
:103CB00078607B6800229A7200BF0C37BD465DF8C1
:103CC000047B704780B483B000AF78600B46FB7014
:103CD0007B689A7AFB781344DAB27B689A7200BFE9
:103CE0000C37BD465DF8047B7047000080B582B09C
:103CF00000AF78600B46FB707B681B78052B7ED885
:103D000001A252F823F000BF213D0008393D000810
:103D10004F3D00085F3D0008A33D0008DF3D00085F
:103D2000FB783E2B03D17B6801221A7067E00121EA
:103D30007868FFF7A8FF62E07B680E33FA781146D7
:103D4000184600F005F97B6802221A7057E0FB78EC
:103D50009AB27B681A817B6803221A704FE0FA7866
:103D60007B68DB7B19467B681B890B449A4210D128
:103D70007B681B89FA2B0CD87868FFF796FF7B6865
:103D80001B89002B01D1052200E004227B681A70F8
:103D900035E001217868FFF776FF7B6800221A7012
:103DA0002DE07B6893F80A315A1CD1B27A6882F808
:103DB0000A111A467B681344FA781A74FB7819467C
:103DC0007868FFF77FFF7B6893F80A319AB27B68C7
:103DD0001B899A4212D17B6805221A700EE07B681B
:103DE00000221A707B689B7AFA789A4201D10123EB
:103DF00006E001217868FFF746FF00E000BF0023DE
:103E000018460837BD4680BD80B586B000AFF86063
:103E10007A601A460B46FB7213463B813B89FA2BAC
:103E200001D902234AE0FB685B68DB6898470346D8
:103E30001A463B8905339A4201DA03233EE0FB68C8
:103E40005B689B683E209847FB685B689B68FA7AD2
:103E500010469847FB685B689B683A89D2B2104667
:103E60009847FB685B689B683A89D1B2FA7A0A4442
:103E7000D2B2104698470023FB750023BB7511E0B2
:103E8000BB7D7A6813441B787B75FB685B689B6815
:103E90007A7D10469847FA7D7B7D1344FB75BB7D88
:103EA0000133BB75BB7D9BB23A899A42E8D8FB6867
:103EB0005B689B68FA7D10469847002318461837C0
:103EC000BD4680BD84B080B582B000AF786007F198
:103ED000140080E80E00797D97F8103198B207F150
:103EE00014039A1C03467868FFF78EFF03461846B2
:103EF0000837BD46BDE8804004B0704780B584B047
:103F000000AF7860396017E07B685B685B68984752
:103F10000346FB73FB7B19467868FFF7E7FE034611
:103F2000012B09D13A687B6810460E33FD221946F1
:103F300000F042FE012307E07B685B681B6898473E
:103F40000346002BE0D1002318461037BD4680BD44
:103F500080B483B000AF78600B46FB707B68FA7862
:103F60005A707B68002283F8FC207B6800221A705C
:103F700000BF0C37BD465DF8047B704780B483B04A
:103F800000AF78607B6893F8FC207B681B789A42CE
:103F90000CBF01230023DBB218460C37BD465DF889
:103FA000047B704780B483B000AF78607B681A7878
:103FB0007B6893F8FC309A420AD27B681B785A1CC3
:103FC000D1B27A6811701A467B6813449B7806E078
:103FD0007B681B780133DAB27B681A7000231846BD
:103FE0000C37BD465DF8047B704790B583B000AFD9
:103FF00078607868FFF7D6FF03469CB27868FFF7D1
:10400000D1FF03469BB21B029BB223449BB21BB25F
:1040100018460C37BD4690BD80B584B000AFF8603F
:10402000B9601346FB71FB795B00DBB21A46B968D5
:10403000F86800F004F800BF1037BD4680BD90B5A9
:1040400087B000AFF860B9601346FB710023FB75C1
:104050000AE0FB7DBA68D418F868FFF7A3FF0346AF
:104060002370FB7D0133FB75FA7DFB799A42F0D317
:1040700000BF1C37BD4690BD80B582B000AF7860F0
:104080000B46FB7002E07868FFF78CFFFB785A1E46
:10409000FA70002BF7D100BF0837BD4680BD80B451
:1040A00085B000AFF860B9607A60FB68BA681A60E2
:1040B000FB687A685A60FB6800229A60FB680022FD
:1040C000DA6000BF1437BD465DF8047B704780B4EA
:1040D00085B000AF78600B46FB707B689B6801334E
:1040E000FB607B685B68FA689A4201D30023FB603F
:1040F0007B68DB68FA689A4202D14FF0FF330AE02E
:104100007B681A687B689B681344FA781A707B682E
:10411000FA689A60002318461437BD465DF8047BA0
:10412000704780B485B000AF786039607B689A686A
:104130007B68DB689A4202D14FF0FF3316E07B6860
:10414000DB680133FB607B685B68FA689A4201D3E5
:104150000023FB607B681A687B68DB6813441A786D
:104160003B681A707B68FA68DA60002318461437D7
:10417000BD465DF8047B704780B485B000AF7860C1
:104180007B68DA687B689B68D31AFB60FB68002B4E
:1041900004DC7B685A68FB681344FB60FB68013BE6
:1041A00018461437BD465DF8047B704798B500AFDC
:1041B000064B5B689CB20548FFF7DEFF03469BB2E7
:1041C000E31A9BB2013B9BB2184698BD5C030020EA
:1041D00080B582B000AFFB1D19460448FFF7A1FF70
:1041E000FB7918460837BD4680BD00BF5C03002040
:1041F00080B582B000AF0346FB71F91D6423012234
:104200000348FEF784FE00BF0837BD4680BD00BFEF
:104210008C07002080B400AF4FF6FF731846BD46F0
:104220005DF8047B7047000080B582B000AF786015
:104230007B68094A93420AD1012208490648FEF7E1
:10424000FFFE064B1B7819460548FFF740FF00BFED
:104250000837BD4680BD00BF8C070020CC0700207A
:104260005C0300202DE9B043ADF52A7D04AF4FF487
:10427000806268496848FFF712FF684B684A1A6015
:10428000664B684ADA60654B674A5A60634B674A17
:104290009A6062496648FFF7E2FC0023C7F894324F
:1042A00018E0644AD7F89432134401221A70614A24
:1042B000D7F894329B0013440022DA805D4AD7F885
:1042C00094329B00134400229A80D7F89432013331
:1042D000C7F89432D7F89432022BE2DDFCF708FEDF
:1042E00000F0B8F800F0F8F900F0D6F900F0AAF9FB
:1042F00000F07EF900F01CF901224F494F48FEF70B
:104300009FFE07F52173022219464D48FCF7C8FEAF
:104310004748FFF773FB3220FCF75CFE07F5C273DA
:1043200019464348FFF7EAFD0346012BF0D107F594
:10433000C2735B78432B12D13B1D424A1C46134685
:104340000FCB07C423800D23C7F89032D7F89032E3
:104350009AB2391D4FF47A733B48FEF7D8FD07F542
:10436000C2735B78192BD3D107F5C27207F582733C
:1043700011461846FFF70DFC07F58273B3F920309C
:1043800007EE903AF8EEE77A9FED307A67EE877A9B
:1043900017EE900AFCF7A0F88046894607F582736D
:1043A000B3F9223007EE903AF8EEE77A9FED277ADC
:1043B00067EE877A17EE900AFCF78EF804460D46F2
:1043C00007F58273B3F9243007EE903AF8EEE77AF6
:1043D0009FED1E7A67EE877A17EE900AFCF77CF85D
:1043E00002460B46381DCDE90223CDE90045424681
:1043F0004B46174901F050F80346C7F88C32D7F8FE
:104400008C329AB2391D4FF47A730F48FEF77FFD54
:104410007EE700BF7C0300205C0300206C030020CB
:10442000AD41000815420008D1410008F1410008E3
:10443000080200207C070020CC0700208C07002009
:1044400014030020806C0008D00700200000B43C5A
:10445000906C000880B594B000AF07F11C033422C3
:104460000021184600F0B3FB07F1080300221A6090
:104470005A609A60DA601A6100237B602A4B1B6CD9
:10448000294A43F080531364274B1B6C03F080537D
:104490007B607B6800233B60244B1B6823F4404314
:1044A000224A43F480431360204B1B6803F44043CB
:1044B0003B603B680223FB610123BB621023FB626C
:1044C00002237B630023BB631023FB634FF4A873B9
:1044D0003B6404237B640223BB640223FB6407F177
:1044E0001C031846FEF76CFA0346002B01D000F0BF
:1044F0006FF90F23BB600223FB6000233B614FF485
:1045000080537B610023BB6107F108030221184639
:10451000FDF7A0FF0346002B01D000F059F900BFC2
:104520005037BD4680BD00BF0038024000700040DB
:1045300080B584B000AF3B4600221A605A609A6092
:10454000DA60284B284A1A60264B4FF480325A60B2
:10455000244B00229A60234B01221A61214B012235
:104560009A61204B00221A621E4B0022DA621D4B18
:104570001E4A9A621B4B0022DA601A4B0222DA6151
:10458000184B01221A63174B01225A611548FCF798
:1045900043FD0346002B01D000F01AF900233B60D5
:1045A00001237B600723BB603B4619460D48FCF79F
:1045B00067FE0346002B01D000F00AF901233B609F
:1045C00002237B600023BB603B4619460548FCF78D
:1045D00057FE0346002B01D000F0FAF800BF103759
:1045E000BD4680BD14030020002101400100000FE2
:1045F00080B500AF114B124A1A60104B4FF4E132F4
:104600005A600E4B00229A600C4B0022DA600B4B72
:1046100000221A61094B0C225A61084B00229A6150
:10462000064B0022DA610548FEF724FC0346002B06
:1046300001D000F0CDF800BF80BD00BF8C07002086
:104640000010014080B500AF114B124A1A60104BA8
:104650004FF4E1325A600E4B00229A600C4B00225C
:10466000DA600B4B00221A61094B0C225A61084B8D
:1046700000229A61064B0022DA610548FEF7FAFB38
:104680000346002B01D000F0A3F800BF80BD00BF9F
:10469000D00700200044004080B582B000AF002366
:1046A0007B600C4B1B6B0B4A43F480031363094B79
:1046B0001B6B03F480037B607B68002200213A209F
:1046C000FDF74DF93A20FDF766F900BF0837BD4602
:1046D00080BD00BF0038024080B58AB000AF07F14E
:1046E000140300221A605A609A60DA601A6100238B
:1046F0003B61334B1B6B324A43F004031363304B73
:104700001B6B03F004033B613B690023FB602C4BF4
:104710001B6B2B4A43F080031363294B1B6B03F085
:104720008003FB60FB680023BB60254B1B6B244AA6
:1047300043F001031363224B1B6B03F00103BB60C7
:10474000BB6800237B601E4B1B6B1D4A43F00203BA
:1047500013631B4B1B6B03F002037B607B6800221F
:1047600020211848FDF75CFE4FF400537B61164B87
:10477000BB610023FB6107F1140319461348FDF7E1
:10478000BDFC0F237B610023BB610223FB6107F1AA
:10479000140319460D48FDF7B1FC20237B6101236A
:1047A000BB610023FB6100233B6207F11403194640
:1047B0000448FDF7A3FC00BF2837BD4680BD00BFFD
:1047C00000380240000002400000211000080240B2
:1047D00080B400AF00BFBD465DF8047B70470000A9
:1047E00080B582B000AF00237B60104B5B6C0F4A3A
:1047F00043F4804353640D4B5B6C03F480437B6054
:104800007B6800233B60094B1B6C084A43F08053D4
:104810001364064B1B6C03F080533B603B6807201E
:10482000FDF792F800BF0837BD4680BD0038024052
:1048300080B58AB000AF786007F1140300221A60D7
:104840005A609A60DA601A617B681B68304A93424A
:1048500059D100233B612F4B5B6C2E4A43F400730C
:1048600053642C4B5B6C03F400733B613B69002386
:10487000FB60284B1B6B274A43F001031363254B56
:104880001B6B03F00103FB60FB6803237B610323C5
:10489000BB610023FB6107F1140319461E48FDF7B5
:1048A0002DFC1E4B1E4A1A601C4B4FF000725A60C2
:1048B0001A4B00229A60194B0022DA60174B4FF412
:1048C00080621A61154B4FF400625A61134B4FF42A
:1048D00000529A61114B4FF48072DA610F4B4FF422
:1048E00000321A620D4B00225A620C48FDF76EF836
:1048F0000346002B01D0FFF76BFF7B68074A9A63E2
:10490000064A7B68936300BF2837BD4680BD00BF61
:104910000021014000380240000002401008002041
:104920004064024080B58CB000AF786007F11C0392
:1049300000221A605A609A60DA601A617B681B680C
:10494000364A934235D10023BB61354B5B6C344A08
:1049500043F010035364324B5B6C03F01003BB61F4
:10496000BB6900237B612E4B1B6B2D4A43F0010377
:1049700013632B4B1B6B03F001037B617B694FF4CB
:10498000C063FB6102233B6201237B620323BB62A2
:104990000723FB6207F11C0319462248FDF7AEFB13
:1049A000002200212520FCF7DAFF2520FCF7F3FF89
:1049B00030E07B681B681C4A93422BD100233B618B
:1049C000174B1B6C164A43F400331364144B1B6CD7
:1049D00003F400333B613B690023FB60104B1B6B0E
:1049E0000F4A43F0010313630D4B1B6B03F00103EC
:1049F000FB60FB680C23FB6102233B6201237B62AB
:104A00000323BB620723FB6207F11C031946054819
:104A1000FDF774FB00BF3037BD4680BD001001407C
:104A200000380240000002400044004080B400AF63
:104A300000BFBD465DF8047B704780B400AFFEE761
:104A400080B400AFFEE780B400AFFEE780B400AFF3
:104A5000FEE780B400AF00BFBD465DF8047B704741
:104A600080B400AF00BFBD465DF8047B704780B4E2
:104A700000AF00BFBD465DF8047B704780B500AF56
:104A8000FCF788FA00BF80BD80B500AF0248FEF792
:104A900025FB00BF80BD00BF8C07002080B500AFA4
:104AA0000248FDF7C3F800BF80BD00BF100800201A
:104AB00080B400AF164BD3F88830154A43F4700326
:104AC000C2F88830134B1B68124A43F0010313608D
:104AD000104B00229A600F4B1B680E4A23F0847320
:104AE00023F4803313600B4B0B4A5A60094B1B684D
:104AF000084A23F480231360064B0022DA60044B3B
:104B00004FF000629A6000BFBD465DF8047B7047BD
:104B100000ED00E00038024010300024DFF834D00F
:104B2000002103E00C4B5B58435004310B480C4B05
:104B300042189A42F6D30B4A02E0002342F8043BA3
:104B4000094B9A42F9D3FFF7B3FF00F011F8FFF7D2
:104B500089FB704700000220406F00080000002021
:104B6000DC010020DC01002074080020FEE70000CA
:104B700070B50D4E0D4CA41BA4100025A54209D103
:104B80000B4E0C4C02F06AF8A41BA4100025A542A1
:104B900005D170BD56F8253098470135EEE756F837
:104BA000253098470135F2E7386F0008386F000864
:104BB000386F00083C6F000810B5431E0A4491424C
:104BC00000D110BD11F8014B03F8014FF7E7024483
:104BD0000346934200D1704703F8011BF9E72DE922
:104BE000FF4755EC104B0D9FDDF830A0002D0E4611
:104BF00091461946B8BF22462B4627F02007BBBF77
:104C000005F100431D4600232D23B8BF1446462F4F
:104C10000B7004D0452F00D10136022100E00321A2
:104C200003AB019302AB00933246534645EC104B65
:104C300000F0DEFC472F804602D119F0010F26D08C
:104C4000462F08EB060911D198F80030302B0AD115
:104C50000022002320462946FCF7DAF818B9C6F1ED
:104C60000106CAF80060DAF80030994400220023F7
:104C700020462946FCF7CCF838B93022039B4B4537
:104C800005D2591C03911A70F8E7CDF80C90039BDC
:104C90000E9AA3EB08034046136004B0BDE8F0870A
:104CA000F7B500290446BABF49422D232B23092911
:104CB00004F8022B437020DD0DF107031F460A267E
:104CC00091FBF6F506FB15113031092D03F8011C97
:104CD00003F1FF32294609DC3031023B02F8011CA6
:104CE000BB42224604D3101A03B0F0BD1346E7E7D7
:104CF00013F8012B04F8012BF2E7302319448370D9
:104D0000021DC170EFE700002DE9F04F8DB00C4699
:104D1000DDF8588016461F46054601F021FA036863
:104D200004931846FBF7B0FD00230A93D8F800302F
:104D30000590073323F0070303F1080294F818A045
:104D4000D4F800B0C8F80020D3E90023C4E9122346
:104D5000D4E9128929F000430793CDF818804FF069
:104D6000FF32A74BDDE90601FCF784F870BB4FF07A
:104D7000FF32A34BDDE90601FCF75EF830BB0022F1
:104D8000002340464946FCF74DF810B12D2384F826
:104D900043309C4A9C4BBAF1470F8CBF90469846D3
:104DA00003232BF00402236122604FF000090097D7
:104DB00033460BAA2146284600F0E6F9013040F0C0
:104DC0008D804FF0FF300DB0BDE8F08F42464B466E
:104DD00040464946FCF74EF810B18C4A8C4BDAE756
:104DE00061684B1C4BF480620AA83ED106236360C5
:104DF0000023CDE9020309AB009349EC108B0DF1C0
:104E000023032260CDF804A061682846FFF7E7FE7F
:104E10000AF0DF03472B804609D1099BD81C02DB2F
:104E20006268934247DDAAF1020A5FFA8AFABAF190
:104E3000650F099924D80139524604F150000991AF
:104E4000FFF72EFF0A9A1318012A8146236102DC1C
:104E50002268D10701D5013323619DF82330002B4F
:104E6000A5D02D2384F84330A1E7BAF1670F00F0F5
:104E70007781BAF1470FBBD10029B9D10123B6E739
:104E8000BAF1660F19D1002963680CDD216113B9ED
:104E90002268D20702D501330B442361099BA36525
:104EA0004FF00009D9E713B92268D00701D50233C2
:104EB000F3E70123F1E74FF0670ADDE90932934296
:104EC00005DB22682361D107E8D50133E5E7002B34
:104ED000D4BFC3F1020301231344DEE723685A055C
:104EE00007D42369424631462846B84701302BD1C2
:104EF00067E7BAF1650F40F2DC8000220023D4E9B5
:104F00001201FBF785FF002833D00123414A3146C7
:104F10002846B84701303FF454AFDDE909239A42EF
:104F200002DB2368D8070FD5DDE904233146284684
:104F3000B84701303FF445AF4FF0000804F11A09BB
:104F40000A9B013B434509DC23689B0700F1038171
:104F5000E0680B9B9842B8BF184634E701234A46E5
:104F600031462846B84701303FF42BAF08F101081D
:104F7000E6E7099B002B2BDC0123264A3146284615
:104F8000B84701303FF41DAF099B23B90A9B13B901
:104F90002368D907D8D5DDE9042331462846B84728
:104FA00001303FF40EAF4FF0000904F11A0A099BDB
:104FB0005B424B4501DC0A9B94E701235246314694
:104FC0002846B84701303FF4FCAE09F10109EEE78D
:104FD0000A9AA36D9A42A8BF1A46002A914607DD95
:104FE0001346314642462846B84701303FF4E9AE01
:104FF00004F11A034FF0000B29EAE979069315E052
:10500000FFFFEF7FD86C0008D46C0008E06C00084C
:10501000DC6C0008E46C00080123069A314628463F
:10502000B84701303FF4CDAE0BF1010BD4F858A0D6
:10503000AAEB09035B45EFDCDDE909239A42D04482
:1050400015DB2368DA0712D40A9B0999A3EB0A023D
:10505000A3EB010A9245A8BF9246BAF1000F0EDCFD
:105060004FF000082AEAEA7A04F11A0919E0DDE9AA
:10507000042331462846B8470130E5D1A1E653461E
:10508000424631462846B8470130E9D199E6012326
:105090004A4631462846B84701303FF492AE08F1FF
:1050A0000108DDE909239B1AA3EB0A034345EEDC63
:1050B0004AE70A9A012A01DCDB073AD50123424676
:1050C00031462846B84701303FF47BAEDDE9042382
:1050D00031462846B847013008F101083FF471AE67
:1050E0000A9B002203F1FF3AD4E912010023FBF7E7
:1050F0008FFEC8B95346424631462846B84701306C
:105100000ED15EE60123524631462846B8470130AB
:105110003FF457AE08F101080A9B013B4345F1DC1F
:105120004B4604F15002DEE64FF0000804F11A0A83
:10513000F2E70123DFE701234A4631462846B84714
:1051400001303FF43EAE08F10108E3680B9A9B1A68
:105150004345F0DCFCE64FF0000804F11909F4E7E0
:1051600000293FF48BAE0023CDE9020309AB009385
:1051700049EC108B2260CDF804A00DF123032846E2
:10518000FFF72DFD804648E62DE9F04791461F4682
:105190008A680B69DDF820809342B8BF1346C9F8CE
:1051A000003091F8432006460C4612B10133C9F88D
:1051B00000302368990642BFD9F800300233C9F89D
:1051C0000030256815F0060507D104F1190AE368D7
:1051D000D9F800209B1AAB4228DC94F843302268AF
:1051E000003318BF012392062DD404F1430239463F
:1051F0003046C047013020D02368E568D9F8002048
:1052000003F00603042B08BFAD1AA36822690CBF84
:1052100025EAE57500259342C4BF9B1AED184FF0AF
:1052200000091A344D451AD1002008E001235246E6
:1052300039463046C047013003D14FF0FF30BDE85A
:10524000F0870135C3E7E1185A1C302081F843008C
:10525000224494F8451082F843100233C5E7012335
:10526000224639463046C0470130E6D009F10109EF
:10527000D8E700002DE9F04301F1430C0C46097E0C
:1052800085B06E291746064698460C9A00F0B38002
:1052900022D8632936D00AD8002900F0B9805829CD
:1052A00000F0838004F1420584F8421032E0642962
:1052B00001D06929F6D120681368050603F10401BD
:1052C0002AD51B681160002B03DA2D225B4284F87B
:1052D00043206F480A2239E0732900F09D8008D8E6
:1052E0006F2920D07029DDD1236843F0200323608B
:1052F00003E0752917D07829D4D1782384F8453074
:10530000644855E01368191D1B68116004F14205DB
:1053100084F8423001238CE01B68116010F0400FCC
:1053200018BF1BB2CFE713682568181D1060280648
:1053300001D51B6802E06806FBD51B8854486F291D
:1053400014BF0A220822002184F843106568A56072
:10535000002DC0F29580216821F004012160002B0E
:105360003DD1002D40F08E806546082A0BD1236880
:10537000DB0708D5236962689A42DEBF302305F84F
:10538000013C05F1FF35ACEB05032361CDF800804E
:105390003B4603AA21463046FFF7F6FE01304DD1C9
:1053A0004FF0FF3005B0BDE8F083394884F8451070
:1053B000136821681D1D1B6815600A060BD5CA07F6
:1053C00044BF41F0200121601BB9226822F0200275
:1053D00022601022B7E74D0648BF9BB2EFE7654653
:1053E000B3FBF2F102FB1133C35C05F8013D0B4640
:1053F0000029F5D1B9E7136825686169181D1060A7
:1054000028061B6801D5196002E06A06FBD51980E1
:10541000002323616546B9E71368191D11601D68F3
:10542000626800212846FBF73BFA08B1401B606028
:1054300063682361002384F84330A7E723692A4681
:1054400039463046C0470130AAD023689B0713D4A1
:10545000E068039B9842B8BF1846A3E701234A4679
:1054600039463046C04701309AD00135E368039A87
:105470009B1AAB42F2DCEBE7002504F11909F5E7D2
:10548000002BACD1037884F8423004F142056CE77C
:10549000E66C0008F76C00080EB400B59CB01DABBC
:1054A000029006906FF00041094807910491094964
:1054B00053F8042B05910068019302A901F052FAF8
:1054C000029B00221A701CB05DF804EB03B0704719
:1054D0000C0000200802FFFF2DE9F74F03690C695B
:1054E000A3428046C0F28280013C01F114074FEADA
:1054F000840C00F1140657F8245056F8240006EBEB
:105500000C03013507EB0C090193B0FBF5F595B3DE
:105510004FF0000A3846B646D34650F8042B93B2F3
:1055200005FB03A34FEA134A9BB2ABEB0303120C38
:10553000DEF800B005FB02A213FA8BF34FEA124A21
:105540001FFA82FBDEF80020CBEB124202EB234273
:105550009BB243EA024381454FEA224B4EF8043B9B
:10556000DBD256F80C3033B9019B043B9E421A46FD
:1055700030D3C8F81040404601F01EF8002825DB63
:10558000013530464FF0000C57F8042BD0F800E0FE
:1055900093B2ACEB0303120C13FA8EF3C2EB1E4270
:1055A00002EB23429BB243EA0243B9454FEA224C45
:1055B00040F8043BE8D256F8242006EB84032AB9CD
:1055C000043B9E421A460BD3C8F81040284603B04D
:1055D000BDE8F08F1268043B002ACAD1013CC5E740
:1055E0001268043B002AEFD1013CEAE70020EEE715
:1055F0002DE9F04F57EC106B97B0456A06910446C1
:105600000B921293DDF88080CDE900673DB9102040
:1056100000F0B4FD6062C0E901550560C560636AD1
:10562000196851B15A684A60012393408B60204643
:1056300000F0E0FD636A00221A603B1EBBBF23F04E
:105640000043019300230122ACBFC8F80030C8F822
:105650000020AF4BDDF8048033EA080314D1129A1E
:1056600042F20F731360009B23B9C8F313000028A4
:1056700000F04285219BDFF8ACB2002B00F044859E
:105680000BF1030300F03EBDDDE9006700220023BB
:1056900030463946FBF7BCFB814668B1129A0123BC
:1056A0001360219B002B00F024859A4B219A03F173
:1056B000FF3B136000F028BD14AA15A947EC106B3E
:1056C000204600F0F0FFC8F30A550490002D7CD06E
:1056D000C7F3130343F07F5BB2464BF4401BA5F2C4
:1056E000FF35CDF84C9000228B4B50465946FAF7C7
:1056F00093FD81A3D3E90023FBF722F980A3D3E92B
:105700000023FAF78BFD064628460F46FAF7D2FE2D
:105710007DA3D3E90023FBF713F902460B4630467D
:105720003946FAF77BFD06460F46FBF7B9FB002228
:105730008246002330463946FBF774FB48B1504699
:10574000FAF7B8FE32463B46FBF762FB08B90AF1AE
:10575000FF3ABAF1160F59D8704901EBCA01DDE9D9
:105760000023D1E90001FBF77BFB002850D00AF1B0
:10577000FF3A00230F93149B5D1BB5F1010849BF4D
:10578000C5F10103002305934FF0000858BF0593AE
:10579000BAF1000F3EDB0023D044CDF838A00793C8
:1057A000069B092B00F29080052BC4BF043B069397
:1057B000069BA3F10203CCBF00250125032B00F2B9
:1057C0008F80DFE803F07D7F3171DDE914531D44E4
:1057D00005F23240202813DDC0F14000009B08FA9A
:1057E00000F805F2124023FA00F048EA0000FAF748
:1057F00051FE01238246A1F1F87B013D139372E72C
:10580000009BC0F1200003FA00F0F0E70123B1E7AC
:105810000F90B0E7059BA3EB0A030593CAF10003C1
:10582000079300230E93BBE701230A930B9B002BE6
:1058300059DD02939946666A00227260042202F1E1
:1058400014009842716853D9204600F09FFC636AA7
:105850003060B9F10E0FD3F800B000F2E680002DF1
:1058600000F0E3809DED007BBAF1000F8DED107B21
:1058700074DD2A4A0AF00F0302EBC30393ED007BA9
:105880004FEA2A16F0068DED087B65D5244BDDE93D
:105890001001D3E90823FBF77DF9CDE9000106F0FB
:1058A0000F0603251E4F4CE001230A930B9B534424
:1058B00003F1010902934B46012BB8BF0123BAE75C
:1058C0000023B2E70023F0E70125002306930A95A1
:1058D0004FF0FF3302939946002212230B92AAE75E
:1058E00001230A93F4E70123029399461A46F5E748
:1058F000013171605200A2E761436F63A787D23F15
:10590000B3C8608B288AC63FFB799F501344D33FAE
:105910000000F07FE56C00080000F83F406D0008D3
:10592000186D0008116D0008F10708D5DDE90801C0
:10593000D7E90023FBF704F8CDE90801013576101B
:105940000837002EF0D1DDE90823DDE90001FBF77F
:1059500021F9CDE900011AE00225A3E700F0A080BB
:10596000CAF100069F4BA04F06F00F0203EBC203E3
:10597000D3E90023DDE91001FAF7E2FFCDE90001E8
:10598000361100230225002E7FD1002BE1D10F9B81
:10599000002B00F08780DDE900670022934B304642
:1059A0003946FBF73FFA00287CD0B9F1000F79D0D7
:1059B000029B002B35DD0AF1FF33089339460022A4
:1059C0008B4B3046FAF7BCFFCDE90001029F013551
:1059D0002846FAF76FFDDDE90023FAF7B1FF002250
:1059E000844BFAF71BFC0546A1F15076002F5DD1E0
:1059F0000022814BDDE90001FAF70EFC2A4633460E
:105A0000CDE90001FBF72CFA002840F088822A46F5
:105A100006F10043DDE90001FBF704FA002840F03D
:105A20007C82DDE91023CDE90023159B002BC0F219
:105A30005081BAF10E0F00F34C816A4B03EBCA039D
:105A400093ED007B0B9B002B8DED027B80F2D880C9
:105A5000B9F1000F00F3D48040F05E820022664B63
:105A600051EC170BFAF76CFFDDE90023FBF7EEF9B9
:105A70004F464E46002840F0348231230BF1010599
:105A80008BF800300AF1010A2FE2F20705D5D7E9B9
:105A90000023FAF755FF013501237610083772E726
:105AA000022574E7CDF820A04F4691E74D4B03EB5C
:105AB000C70353E902010A9B002B47D002460B465D
:105AC00000204E49FBF766F82A463346FAF7A4FB56
:105AD000CDE90C015D46DDE90001FBF7E1F9064681
