:020000040800F2
:1000000000000220D1300008F52F0008033000085E
:10001000093000080F30000815300008000000000B
:100020000000000000000000000000001B3000087D
:100030002930000800000000373000084530000873
:100040002131000821310008213100082131000848
:100050002131000821310008213100082131000838
:100060002131000821310008213100082131000828
:100070002131000821310008213100082131000818
:100080002131000821310008213100082131000808
:1000900021310008213100082131000821310008F8
:1000A00021310008213100082131000821310008E8
:1000B00021310008213100082131000821310008D8
:1000C00021310008213100082131000821310008C8
:1000D0002131000851300008213100082131000889
:1000E00021310008213100082131000821310008A8
:1000F0002131000821310008213100082131000898
:100100002131000821310008213100082131000887
:100110002131000821310008213100082131000877
:100120002131000821310008213100082131000867
:10013000213100080000000000000000213100080B
:100140002131000821310008213100082131000847
:100150002131000821310008213100082131000837
:100160002131000821310008213100082131000827
:100170002131000821310008213100080000000071
:100180000000000021310008000000000000000015
:1001900021310008000000000000000021310008AB
:1001A00000000000000000000000000021310008F5
:1001B00021310008213100082131000821310008D7
:0401C00021310008E1
:1001D00010B5054C237833B9044B13B10448AFF381
:1001E00000800123237010BD70000020000000007B
:1001F000A439000808B5034B1BB103490348AFF30A
:10020000008008BD0000000074000020A439000830
:1002100053B94AB9002908BF00281CBF4FF0FF316D
:100220004FF0FF3000F072B9ADF1080C6DE904CE6B
:1002300000F006F8DDF804E0DDE9022304B07047C1
:100240002DE9F047089E04468846002B4BD18A4290
:10025000154667D9B2FA82F24AB1C2F1200701FA13
:1002600002F320FA07F7954047EA030894404FEA63
:10027000154E230CB8FBFEF71FFA85FC0EFB178802
:1002800043EA084307FB0CF1994209D9EB1807F13F
:10029000FF3080F01B81994240F21881023F2B44CD
:1002A0005B1AA4B2B3FBFEF00EFB103344EA034426
:1002B00000FB0CFCA44509D92C1900F1FF3380F098
:1002C0000781A44540F2048102382C4440EA0740EB
:1002D000A4EB0C0400271EB1D4400023C6E9004360
:1002E0003946BDE8F0878B4209D9002E00F0EB803B
:1002F0000027C6E9000138463946BDE8F087B3FA61
:1003000083F7002F47D18B4202D3824200F2FA805A
:10031000841A61EB030301209846002EE0D0C6E961
:100320000048DDE702B9FFDEB2FA82F2002A40F0AF
:100330008F80491B4FEA154E1FFA85F80127B1FB44
:10034000FEFC230C0EFB1C1143EA014308FB0CF1DD
:10035000994207D9EB180CF1FF3002D2994200F212
:10036000CD808446591AA3B2B1FBFEF00EFB1014E7
:1003700043EA044408FB00F8A04507D92C1900F112
:10038000FF3302D2A04500F2B6801846A4EB080461
:1003900040EA0C409FE7C7F1200CBB4022FA0CFE5C
:1003A0004EEA030E01FA07F420FA0CF521FA0CF3D9
:1003B0004FEA1E482543B3FBF8F92C0C08FB193310
:1003C0001FFA8EFA44EA034309FB0AF49C4202FA3C
:1003D00007F200FA07F10BD91EEB030309F1FF3016
:1003E00080F087809C4240F28480A9F10209734426
:1003F0001B1BADB2B3FBF8F008FB103345EA034416
:1004000000FB0AFAA24508D91EEB040400F1FF33F1
:100410006BD2A24569D90238744440EA0940A0FB76
:100420000289A4EB0A044C45C2464B4654D351D032
:10043000002E69D0B1EB0A0564EB030404FA0CFC4E
:10044000FD40FC404CEA0505C6E90054002747E79B
:10045000C2F1200320FA03F7954001FA02F021FAD5
:1004600003F34FEA154E3843010CB3FBFEF71FFAB6
:1004700085F80EFB173341EA034107FB08F38B4273
:1004800004FA02F407D9691807F1FF3C2FD28B4216
:100490002DD9023F2944CB1A81B2B3FBFEF00EFBEB
:1004A000103341EA034100FB08F38B4207D9691876
:1004B00000F1FF3C17D28B4215D902382944C91AE2
:1004C00040EA07473BE73746304609E70746E7E695
:1004D0001846FBE64145ABD2B8EB020A69EB0E02C7
:1004E00001381346A4E76046E9E7184695E76746F2
:1004F000D1E781467CE702382C4447E7ACF1020C97
:100500002B442FE7384608E73746E9E6704700BF37
:1005100001F0FF01102A2BDB10F0070F08D010F8B4
:10052000013B013A8B422DD010F0070F42B3F6D1B8
:10053000F0B441EA012141EA014122F007047FF0D1
:1005400000070023F0E80256083C85EA010586EA28
:10055000010685FA47F5A3FA87F586FA47F6A5FA64
:1005600087F68EB9EED1F0BC01F0FF0102F0070270
:1005700032B110F8013B013A83EA010313B1F8D11B
:100580000020704701387047002D06BF35460338FC
:10059000073815F0010F07D1013015F4807F02BF35
:1005A000013015F4C03F0130F0BC0138704700BF86
:1005B00080B500AF0E4B1B680D4A43F40073136007
:1005C0000B4B1B680A4A43F480631360084B1B689B
:1005D000074A43F480731360032000F049F90020B8
:1005E00000F008F802F05AFC0023184680BD00BF56
:1005F000003C024080B582B000AF7860124B1A68B0
:10060000124B1B7819464FF47A73B3FBF1F3B2FB2C
:10061000F3F3184600F061F90346002B01D00123E3
:100620000EE07B680F2B0AD8002279684FF0FF306C
:1006300000F029F9064A7B681360002300E00123DB
:1006400018460837BD4680BD080000200400002081
:100650000000002080B400AF064B1B781A46064B02
:100660001B681344044A136000BFBD465DF8047B59
:10067000704700BF040000209800002080B400AF45
:10068000034B1B681846BD465DF8047B704700BFEE
:100690009800002080B584B000AF7860FFF7EEFFCF
:1006A000B8607B68FB60FB68B3F1FF3F05D0094B86
:1006B0001B781A46FB681344FB6000BFFFF7DEFFA0
:1006C0000246BB68D31AFA689A42F7D800BF1037BF
:1006D000BD4680BD0400002080B485B000AF7860C6
:1006E0007B6803F00703FB600C4BDB68BB60BA68F8
:1006F0004FF6FF031340BB60FB681A02BB6813434D
:1007000043F0BF6343F40033BB60044ABB68D3606B
:1007100000BF1437BD465DF8047B704700ED00E074
:1007200080B400AF044BDB681B0A03F007031846D4
:10073000BD465DF8047B704700ED00E080B483B0F7
:1007400000AF0346FB71FB7903F01F02074997F9DD
:1007500007305B09012000FA02F241F8232000BFB4
:100760000C37BD465DF8047B704700BF00E100E038
:1007700080B483B000AF03463960FB7197F907304E
:10078000002B0BDA3B68DAB20C49FB7903F00F035C
:10079000043B1201D2B20B441A7609E03B68DAB28C
:1007A000074997F907301201D2B20B4483F80023AE
:1007B00000BF0C37BD465DF8047B704700ED00E0DC
:1007C00000E100E080B489B000AFF860B9607A6001
:1007D000FB6803F00703FB61FB69C3F10703042B0C
:1007E00028BF0423BB61FB690433062B02D9FB69D4
:1007F000033B00E000237B614FF0FF32BB6902FA4C
:1008000003F3DA43BB681A407B699A404FF0FF312B
:100810007B6901FA03F3D9437B680B401343184605
:100820002437BD465DF8047B7047000080B582B078
:1008300000AF78607B68013BB3F1807F01D3012377
:100840000FE00A4A7B68013B53600F214FF0FF30F5
:10085000FFF78EFF054B00229A60044B07221A60B7
:10086000002318460837BD4680BD00BF10E000E0F9
:1008700080B582B000AF78607868FFF72DFF00BFC9
:100880000837BD4680BD80B586B000AF0346B9606D
:100890007A60FB7300237B61FFF742FF78617A681F
:1008A000B9687869FFF78EFF024697F90F30114655
:1008B0001846FFF75DFF00BF1837BD4680BD80B505
:1008C00082B000AF0346FB7197F907301846FFF777
:1008D00035FF00BF0837BD4680BD80B582B000AF90
:1008E00078607868FFF7A2FF034618460837BD46D0
:1008F00080BD80B483B000AF78607B6893F83530FA
:10090000DBB2022B04D07B6880225A6501230CE005
:100910007B68052283F835207B681B681A687B6832
:100920001B6822F001021A60002318460C37BD46EE
:100930005DF8047B7047000080B489B000AF786038
:10094000396000237B6100233B610023BB610023EE
:10095000FB6165E10122FB6902FA03F37B613B68FD
:100960001B687A6913403B613A697B699A4240F09F
:1009700054813B685B68022B03D03B685B68122B99
:1009800023D1FB69DA087B68083253F82230BB6157
:10099000FB6903F007039B000F2202FA03F3DB431A
:1009A000BA691340BB613B681A69FB6903F007032E
:1009B0009B0002FA03F3BA691343BB61FB69DA08CF
:1009C0007B680832B96943F822107B681B68BB61F9
:1009D000FB695B00032202FA03F3DB43BA691340AD
:1009E000BB613B685B6803F00302FB695B0002FAD2
:1009F00003F3BA691343BB617B68BA691A603B6849
:100A00005B68012B0BD03B685B68022B07D03B680F
:100A10005B68112B03D03B685B68122B30D17B687D
:100A20009B68BB61FB695B00032202FA03F3DB43B3
:100A3000BA691340BB613B68DA68FB695B0002FA84
:100A400003F3BA691343BB617B68BA699A607B6838
:100A50005B68BB610122FB6902FA03F3DB43BA69FD
:100A60001340BB613B685B681B0903F00102FB6933
:100A700002FA03F3BA691343BB617B68BA695A602F
:100A80007B68DB68BB61FB695B00032202FA03F34E
:100A9000DB43BA691340BB613B689A68FB695B0042
:100AA00002FA03F3BA691343BB617B68BA69DA607F
:100AB0003B685B6803F08053002B00F0AE8000239E
:100AC000FB605C4B5B6C5B4A43F480435364594B63
:100AD0005B6C03F48043FB60FB68574AFB699B082F
:100AE000023352F82330BB61FB6903F003039B0020
:100AF0000F2202FA03F3DB43BA691340BB617B6840
:100B00004E4A934225D07B684D4A93421FD07B6862
:100B10004C4A934219D07B684B4A934213D07B686E
:100B20004A4A93420DD07B68494A934207D07B687A
:100B3000484A934201D106230CE007230AE005232B
:100B400008E0042306E0032304E0022302E001237B
:100B500000E00023FA6902F0030292009340BA69B0
:100B60001343BB613449FB699B080233BA6941F8FE
:100B70002320394B1B68BB613B69DB43BA691340D7
:100B8000BB613B685B6803F48033002B03D0BA6918
:100B90003B691343BB61304ABB6913602E4B5B68F2
:100BA000BB613B69DB43BA691340BB613B685B686F
:100BB00003F40033002B03D0BA693B691343BB61D4
:100BC000254ABB695360244B9B68BB613B69DB438F
:100BD000BA691340BB613B685B6803F48013002B68
:100BE00003D0BA693B691343BB611B4ABB6993607D
:100BF000194BDB68BB613B69DB43BA691340BB61DE
:100C00003B685B6803F40013002B03D0BA693B69AF
:100C10001343BB61104ABB69D360FB690133FB61BD
:100C2000FB690F2B7FF696AE00BF2437BD465DF8FB
:100C3000047B704700380240003801400000024049
:100C40000004024000080240000C02400010024074
:100C50000014024000180240003C014080B485B0FE
:100C600000AF78600B467B807B681A697B881340F5
:100C7000002B02D00123FB7301E00023FB73FB7BFD
:100C800018461437BD465DF8047B704780B483B0C6
:100C900000AF78600B467B8013467B707B78002B1F
:100CA00003D07A887B689A6103E07B881A047B68AA
:100CB0009A6100BF0C37BD465DF8047B70470000A9
:100CC00080B584B000AF786039607B68002B01D1BB
:100CD0000123CAE0674B1B6803F00F033A689A428E
:100CE0000CD9644B3A68D2B21A70624B1B6803F09D
:100CF0000F033A689A4201D00123B6E07B681B6873
:100D000003F00203002B20D07B681B6803F0040370
:100D1000002B05D0584B9B68574A43F4E05393602F
:100D20007B681B6803F00803002B05D0524B9B68BF
:100D3000514A43F4604393604F4B9B6823F0F002A9
:100D40007B689B684C4913438B607B681B6803F08E
:100D50000103002B44D07B685B68012B07D1464B15
:100D60001B6803F40033002B19D101237DE07B685D
:100D70005B68022B03D07B685B68032B07D13E4B7B
:100D80001B6803F00073002B09D101236DE03A4B7F
:100D90001B6803F00203002B01D1012365E0364BF1
:100DA0009B6823F003027B685B68334913438B60C5
:100DB000FFF764FCF8600AE0FFF760FC0246FB689E
:100DC000D31A41F28832934201D903234DE02A4BD2
:100DD0009B6803F00C027B685B689B009A42EBD136
:100DE000244B1B6803F00F033A689A420CD2214B44
:100DF0003A68D2B21A701F4B1B6803F00F033A68AF
:100E00009A4201D0012330E07B681B6803F00403A1
:100E1000002B08D0184B9B6823F4E0527B68DB68FA
:100E2000154913438B607B681B6803F00803002B94
:100E300009D0114B9B6823F460427B681B69DB007F
:100E40000D4913438B6000F051F801460A4B9B6833
:100E50001B0903F00F03094AD35C21FA03F3084A84
:100E600013600020FFF7C6FB002318461037BD466D
:100E700080BD00BF003C024000380240D839000865
:100E80000800002080B400AF034B1B681846BD4625
:100E90005DF8047B704700BF0800002080B500AFFC
:100EA000FFF7F0FF0146054B9B689B0A03F0070321
:100EB000034AD35C21FA03F3184680BD0038024090
:100EC000E839000880B500AFFFF7DCFF0146054BAD
:100ED0009B685B0B03F00703034AD35C21FA03F31F
:100EE000184680BD00380240E8390008F0B587B0E8
:100EF00000AF0023FB6000237B610023BB60002365
:100F00007B6000233B61C64B9B6803F00C030C2BFA
:100F100000F27E8101A252F823F000BF510F0008B9
:100F2000111200081112000811120008570F0008D2
:100F30001112000811120008111200085D0F0008BC
:100F4000111200081112000811120008B91000084F
:100F5000B44B3B615FE1B44B3B615CE1B04B5B6820
:100F600003F03F03FB60AE4B5B6803F48003002B90
:100F70004AD0AB4B5B689B094FF0000440F2FF1175
:100F80004FF0000203EA010504EA02062946324650
:100F90004FF000034FF00004540144EAD1644B01C8
:100FA00019462246491B62EB06024FF000034FF040
:100FB0000004940144EA91648B015B1A64EB02041F
:100FC0004FF000014FF00002E20042EA5372D900F4
:100FD0000B4614465B1944EB06044FF000014FF03A
:100FE0000002620242EAD35259020B4614461846E6
:100FF0002146FB684FF000041A462346FFF708F924
:1010000003460C467B6149E0854B5B689B094FF0CA
:10101000000440F2FF114FF0000203EA010504EA68
:101020000206294632464FF000034FF000045401F7
:1010300044EAD1644B0119462246491B62EB060281
:101040004FF000034FF00004940144EA91648B01D7
:101050005B1A64EB02044FF000014FF00002E20063
:1010600042EA5372D9000B4614465B1944EB06045E
:101070004FF000014FF00002A20242EA935299029F
:101080000B46144618462146FB684FF000041A46EA
:101090002346FFF7BDF803460C467B61604B5B6857
:1010A0001B0C03F0030301335B00BB607A69BB6870
:1010B000B2FBF3F33B61AEE0594B5B6803F03F03D7
:1010C000FB60574B5B6803F48003002B4AD0544B02
:1010D0005B689B094FF0000440F2FF114FF00002E3
:1010E00003EA010504EA0206294632464FF00003EE
:1010F0004FF00004540144EAD1644B0119462246E2
:10110000491B62EB06024FF000034FF0000494010C
:1011100044EA91648B015B1A64EB02044FF0000116
:101120004FF00002E20042EA5372D9000B46144627
:101130005B1944EB06044FF000014FF0000262021D
:1011400042EAD35259020B46144618462146FB6820
:101150004FF000041A462346FFF75AF803460C46A0
:101160007B6149E02E4B5B689B094FF0000440F225
:10117000FF114FF0000203EA010504EA02062946C6
:1011800032464FF000034FF00004540144EAD164AA
:101190004B0119462246491B62EB06024FF0000341
:1011A0004FF00004940144EA91648B015B1A64EBF4
:1011B00002044FF000014FF00002E20042EA5372D5
:1011C000D9000B4614465B1944EB06044FF00001AE
:1011D0004FF00002A20242EA935299020B461446D3
:1011E00018462146FB684FF000041A462346FFF7D5
:1011F0000FF803460C467B61094B5B681B0F03F03D
:1012000007037B607A697B68B2FBF3F33B6102E022
:10121000044B3B6100BF3B6918461C37BD46F0BD1F
:10122000003802400024F40000127A0080B586B035
:1012300000AF786000233B617B681B6803F001030B
:10124000002B00F08380954B9B6803F00C03042B6C
:1012500019D0924B9B6803F00C03082B06D18F4BDF
:101260005B6803F48003B3F5800F0CD08B4B9B6855
:1012700003F00C030C2B12D1884B5B6803F4800342
:10128000B3F5800F0BD1854B1B6803F40033002BA3
:101290005BD07B685B68002B57D1012316E27B682B
:1012A0005B68B3F5803F06D17C4B1B687B4A43F4F7
:1012B000803313601DE07B685B68B3F5A02F0CD111
:1012C000764B1B68754A43F480231360734B1B688D
:1012D000724A43F4803313600BE0704B1B686F4A13
:1012E00023F4803313606D4B1B686C4A23F4802316
:1012F00013607B685B68002B13D0FFF7BFF9386180
:1013000008E0FFF7BBF902463B69D31A642B01D909
:101310000323DBE1614B1B6803F40033002BF0D0A7
:1013200014E0FFF7ABF9386108E0FFF7A7F90246D0
:101330003B69D31A642B01D90323C7E1574B1B68C0
:1013400003F40033002BF0D100E000BF7B681B6882
:1013500003F00203002B6FD0504B9B6803F00C038B
:10136000002B17D04D4B9B6803F00C03082B05D1C5
:101370004A4B5B6803F48003002B0BD0474B9B6800
:1013800003F00C030C2B1CD1444B5B6803F480036B
:10139000002B16D1414B1B6803F00203002B05D034
:1013A0007B68DB68012B01D001238FE13B4B1B687D
:1013B00023F0F8027B681B69DB00384913430B609C
:1013C0003AE07B68DB68002B20D0354B01221A60A5
:1013D000FFF754F9386108E0FFF750F902463B691E
:1013E000D31A022B01D9032370E12C4B1B6803F0A5
:1013F0000203002BF0D0294B1B6823F0F8027B6816
:101400001B69DB00254913430B6015E0244B0022C8
:101410001A60FFF733F9386108E0FFF72FF9024649
:101420003B69D31A022B01D903234FE11B4B1B68E5
:1014300003F00203002BF0D17B681B6803F0080364
:10144000002B37D07B685B69002B16D0154B01222F
:101450001A60FFF713F9386108E0FFF70FF9024649
:101460003B69D31A022B01D903232FE10B4B5B6F8E
:1014700003F00203002BF0D01CE00A4B00221A609C
:10148000FFF7FCF838610FE0FFF7F8F802463B6918
:10149000D31A022B08D9032318E100BF00380240F9
:1014A00000004742800E47428A4B5B6F03F0020305
:1014B000002BE9D17B681B6803F00403002B00F0CC
:1014C00097800023FB75834B1B6C03F08053002B2C
:1014D0000FD10023FB607F4B1B6C7E4A43F080538F
:1014E00013647C4B1B6C03F08053FB60FB6801238F
:1014F000FB75794B1B6803F48073002B18D1764B76
:101500001B68754A43F480731360FFF7B7F83861BE
:1015100008E0FFF7B3F802463B69D31A022B01D962
:101520000323D3E06C4B1B6803F48073002BF0D0D3
:101530007B689B68012B06D1664B1B6F654A43F0A5
:10154000010313671CE07B689B68052B0CD1614B82
:101550001B6F604A43F0040313675E4B1B6F5D4AC9
:1015600043F0010313670BE05A4B1B6F594A23F0FA
:1015700001031367574B1B6F564A23F0040313678D
:101580007B689B68002B15D0FFF778F838610AE07C
:10159000FFF774F802463B69D31A41F2883293424E
:1015A00001D9032392E04B4B1B6F03F00203002B86
:1015B000EED014E0FFF762F838610AE0FFF75EF85A
:1015C00002463B69D31A41F28832934201D9032380
:1015D0007CE0404B1B6F03F00203002BEED1FB7D40
:1015E000012B05D13B4B1B6C3A4A23F0805313640B
:1015F0007B689B69002B68D0364B9B6803F00C031B
:10160000082B60D07B689B69022B45D1334B0022AD
:101610001A60FFF733F8386108E0FFF72FF8024649
:101620003B69D31A022B01D903234FE0294B1B68D6
:1016300003F00073002BF0D17B68DA697B681B6ACA
:101640001A437B685B6A9B011A437B689B6A5B0851
:10165000013B1B041A437B68DB6A1B061A437B6849
:101660001B6B1B071B4913434B601C4B01221A6069
:10167000FFF704F8386108E0FFF700F802463B691D
:10168000D31A022B01D9032320E0124B1B6803F06D
:101690000073002BF0D018E0104B00221A60FEF708
:1016A000EDFF386108E0FEF7E9FF02463B69D31A17
:1016B000022B01D9032309E0064B1B6803F00073DA
:1016C000002BF0D101E0012300E000231846183779
:1016D000BD4680BD003802400070004060004742B7
:1016E00080B582B000AF78607B68002B01D1012308
:1016F0003FE07B6893F83930DBB2002B06D17B6882
:10170000002283F83820786801F0F0FB7B682422FF
:1017100083F839207B681B68DA687B681B6822F4D1
:101720000052DA60786800F083FB7B681B681A69F6
:101730007B681B6822F490421A617B681B685A69B7
:101740007B681B6822F02A025A617B681B68DA6892
:101750007B681B6842F40052DA607B680022DA631F
:101760007B68202283F839207B68202283F83A2086
:10177000002318460837BD4680BD80B588B002AF4B
:10178000F860B9603B601346FB8000237B61FB6817
:1017900093F83930DBB2202B40F08380BB68002BFC
:1017A00002D0FB88002B01D101237BE0FB6893F87A
:1017B0003830012B01D1022374E0FB68012283F849
:1017C0003820FB680022DA63FB68212283F8392085
:1017D000FEF754FF7861FB68FA889A84FB68FA8800
:1017E000DA8442E0FB68DB8C9BB2013B9AB2FB6877
:1017F000DA84FB689B68B3F5805F22D13B68009375
:101800007B6900228021F86800F0AEF90346002BC6
:1018100001D0032346E0BB683B613B691B881A4645
:10182000FB681B68C2F308025A60FB681B69002B47
:1018300003D1BB680233BB6017E0BB680133BB60F8
:1018400013E03B6800937B6900228021F86800F078
:101850008BF90346002B01D0032323E0BB685A1CFD
:10186000BA601A78FB681B685A60FB68DB8C9BB215
:10187000002BB7D13B6800937B6900224021F868B8
:1018800000F072F90346002B01D003230AE0FB6845
:10189000202283F83920FB68002283F838200023B7
:1018A00000E0022318461837BD4680BD80B485B0DD
:1018B00000AFF860B9601346FB80FB6893F83A30DC
:1018C000DBB2202B38D1BB68002B02D0FB88002B69
:1018D00001D1012331E0FB6893F83830012B01D1AD
:1018E00002232AE0FB68012283F83820FB68BA68EB
:1018F0009A62FB68FA889A85FB68FA88DA85FB6841
:101900000022DA63FB68222283F83A20FB68002277
:1019100083F83820FB681B685A69FB681B6842F033
:1019200001025A61FB681B68DA68FB681B6842F4B5
:101930009072DA60002300E0022318461437BD4697
:101940005DF8047B7047000080B588B000AF786018
:101950007B681B681B68FB617B681B68DB68BB617D
:101960007B681B685B697B6100233B610023FB6034
:10197000FB6903F00F033B613B69002B0DD1FB6951
:1019800003F02003002B08D0BB6903F02003002BD9
:1019900003D0786800F0D2F9CCE03B69002B00F06E
:1019A000AB807B6903F00103002B05D1BB6903F415
:1019B0009073002B00F0A080FB6903F00103002B63
:1019C0000AD0BB6903F48073002B05D07B68DB6B06
:1019D00043F001027B68DA63FB6903F00403002B28
:1019E0000AD07B6903F00103002B05D07B68DB6B19
:1019F00043F002027B68DA63FB6903F00203002B09
:101A00000AD07B6903F00103002B05D07B68DB6BF8
:101A100043F004027B68DA63FB6903F00803002BE0
:101A20000AD07B6903F00103002B05D07B68DB6BD8
:101A300043F008027B68DA637B68DB6B002B78D0AD
:101A4000FB6903F02003002B07D0BB6903F02003E0
:101A5000002B02D0786800F071F97B681B685B6925
:101A600003F04003002B14BF01230023DBB2FB6013
:101A70007B68DB6B03F00803002B02D1FB68002BB3
:101A800031D0786800F0BAF87B681B685B6903F0B6
:101A90004003002B23D07B681B685A697B681B6856
:101AA00022F040025A617B685B6B002B13D07B688D
:101AB0005B6B224A1A657B685B6B1846FEF719FF61
:101AC0000346002B16D07B685B6B1B6D7A68526BEC
:101AD000104698470EE0786800F03CF80AE0786815
:101AE00000F038F806E0786800F034F87B680022EF
:101AF000DA631EE000BF1CE0FB6903F08003002BEB
:101B000008D0BB6903F08003002B03D0786800F095
:101B1000A7F80FE0FB6903F04003002B0AD0BB6974
:101B200003F04003002B05D0786800F0EFF800BF09
:101B300000E000BF2037BD4680BD00BF391C000853
:101B400080B483B000AF786000BF0C37BD465DF84D
:101B5000047B704780B483B000AF786000BF0C375F
:101B6000BD465DF8047B704780B584B000AFF86077
:101B7000B9603B601346FB712CE0BB69B3F1FF3FDA
:101B800028D0BB69002B07D0FEF778FD02463B68E2
:101B9000D31ABA699A421DD2FB681B68DA68FB68DF
:101BA0001B6822F4D072DA60FB681B685A69FB6814
:101BB0001B6822F001025A61FB68202283F8392059
:101BC000FB68202283F83A20FB68002283F8382043
:101BD00003230FE0FB681B681A68BB681340BA68F0
:101BE0009A420CBF01230023DBB21A46FB799A42CA
:101BF000C3D0002318461037BD4680BD80B483B0E3
:101C000000AF78607B681B68DA687B681B6822F429
:101C10009072DA607B681B685A697B681B6822F0E7
:101C200001025A617B68202283F83A2000BF0C37FA
:101C3000BD465DF8047B704780B584B000AF786026
:101C40007B689B6BFB60FB680022DA85FB680022E7
:101C5000DA84F868FFF77EFF00BF1037BD4680BD0D
:101C600080B485B000AF78607B6893F83930DBB220
:101C7000212B44D17B689B68B3F5805F1AD17B68C8
:101C80001B6AFB60FB681B881A467B681B68C2F3F3
:101C900008025A607B681B69002B05D17B681B6AB0
:101CA0009A1C7B681A620EE07B681B6A5A1C7B6870
:101CB0001A6208E07B681B6A591C7A6811621A78FC
:101CC0007B681B685A607B68DB8C9BB2013B9BB2D4
:101CD0007A681946D184002B0FD17B681B68DA68BB
:101CE0007B681B6822F08002DA607B681B68DA6818
:101CF0007B681B6842F04002DA60002300E00223A8
:101D000018461437BD465DF8047B704780B582B035
:101D100000AF78607B681B68DA687B681B6822F01C
:101D20004002DA607B68202283F839207868FFF768
:101D300007FF002318460837BD4680BD80B584B034
:101D400000AF78607B6893F83A30DBB2222B69D120
:101D50007B689B68B3F5805F23D17B689B6AFB60DF
:101D60007B681B69002B0ED17B681B685B689BB28C
:101D7000C3F308039AB2FB681A807B689B6A9A1CBB
:101D80007B689A6229E07B681B685B689BB2DBB268
:101D90009AB2FB681A807B689B6A5A1C7B689A62BD
:101DA0001BE07B681B69002B0AD17B681B685868A5
:101DB0007B689B6A591C7A689162C2B21A700CE007
:101DC0007B681B685B68DAB27B689B6A581C796821
:101DD000886202F07F02D2B21A707B68DB8D9BB200
:101DE000013B9BB27A681946D185002B18D17B68DC
:101DF0001B68DA687B681B6822F49072DA607B6883
:101E00001B685A697B681B6822F001025A617B6873
:101E1000202283F83A20786800F01CFE002302E0BC
:101E2000002300E0022318461037BD4680BD0000A5
:101E3000B0B584B000AF78600023FB607B681B689E
:101E40001B69FB60FB6823F44053FB607B68DB6825
:101E5000FA681343FB607B681B68FA681A617B6849
:101E60001B68DB68FB60FB6823F4164323F00C035C
:101E7000FB607B689A687B681B691A437B685B69B7
:101E80001A437B68DB691343FA681343FB607B6882
:101E90001B68FA68DA607B681B685B69FB60FB683B
:101EA00023F44073FB607B689B69FA681343FB6013
:101EB0007B681B68FA685A617B68DB69B3F5004F81
:101EC00040F0E4807B681B68AB4A934204D07B6897
:101ED0001B68AA4A93426CD1FEF7F4FF02461346F0
:101EE0009B0013449A001A447B685B685B00B2FB5A
:101EF000F3F3A34AA2FB03235B091C01FEF7E2FFF5
:101F0000024613469B0013449A001A447B685B68A0
:101F10005B00B2FBF3F5FEF7D5FF024613469B00CC
:101F200013449A001A447B685B685B00B2FBF3F3CE
:101F3000934AA2FB03235B09642202FB03F3EB1A1F
:101F4000DB0032338E4AA2FB03235B095B0003F400
:101F5000F8731C44FEF7B6FF024613469B00134479
:101F60009A001A447B685B685B00B2FBF3F5FEF7EE
:101F7000A9FF024613469B0013449A001A447B684B
:101F80005B685B00B2FBF3F37D4AA2FB03235B09B2
:101F9000642202FB03F3EB1ADB003233784AA2FB24
:101FA00003235B0903F007027B681B6822449A60E5
:101FB00054E1FEF773FF024613469B0013449A0058
:101FC0001A447B685B685B00B2FBF3F36C4AA2FBCC
:101FD00003235B091C01FEF761FF024613469B00C9
:101FE00013449A001A447B685B685B00B2FBF3F50C
:101FF000FEF754FF024613469B0013449A001A440E
:102000007B685B685B00B2FBF3F35D4AA2FB0323D2
:102010005B09642202FB03F3EB1ADB003233584AFC
:10202000A2FB03235B095B0003F4F8731C44FEF777
:1020300035FF024613469B0013449A001A447B68FE
:102040005B685B00B2FBF3F5FEF728FF0246134620
:102050009B0013449A001A447B685B685B00B2FBE8
:10206000F3F3474AA2FB03235B09642202FB03F359
:10207000EB1ADB003233424AA2FB03235B0903F075
:1020800007027B681B6822449A60E7E07B681B6854
:10209000394A934204D07B681B68384A934271D115
:1020A000FEF710FF024613469B0013449A001A44A1
:1020B0007B685B689B00B2FBF3F3314AA2FB03230E
:1020C0005B091C01FEF7FEFE024613469B0013440B
:1020D0009A001A447B685B689B00B2FBF3F5FEF73D
:1020E000F1FE024613469B0013449A001A447B6893
:1020F0005B689B00B2FBF3F3214AA2FB03235B095D
:10210000642202FB03F3EB1A1B0132331C4AA2FBCD
:1021100003235B0903F0F0031C44FEF7D3FE0246E1
:1021200013469B0013449A001A447B685B689B002B
:10213000B2FBF3F5FEF7C6FE024613469B001344BE
:102140009A001A447B685B689B00B2FBF3F30C4A6D
:10215000A2FB03235B09642202FB03F3EB1A1B01BE
:102160003233074AA2FB03235B0903F00F027B68AB
:102170001B6822449A6071E0001001400014014085
:102180001F85EB51FEF78AFE024613469B0013445F
:102190009A001A447B685B689B00B2FBF3F3314AF8
:1021A000A2FB03235B091C01FEF778FE02461346DF
:1021B0009B0013449A001A447B685B689B00B2FB47
:1021C000F3F5FEF76BFE024613469B0013449A009C
:1021D0001A447B685B689B00B2FBF3F3214AA2FBC5
:1021E00003235B09642202FB03F3EB1A1B01323366
:1021F0001C4AA2FB03235B0903F0F0031C44FEF717
:102200004DFE024613469B0013449A001A447B6815
:102210005B689B00B2FBF3F5FEF740FE02461346F7
:102220009B0013449A001A447B685B689B00B2FBD6
:10223000F3F30C4AA2FB03235B09642202FB03F3C2
:10224000EB1A1B013233074AA2FB03235B0903F09D
:102250000F027B681B6822449A60FFE700BF1037BB
:10226000BD46B0BD1F85EB5180B582B000AF786030
:1022700039604321386800F0E3FA7B681B7819461F
:10228000386800F02AFB7B685B781946386800F0F4
:1022900024FB7B689B781946386800F01EFB7B683E
:1022A000B3F904301946386800F04CFB7B68B3F989
:1022B00006301946386800F045FB7B68B3F90830F2
:1022C0001946386800F03EFB7B68B3F90A301946BE
:1022D000386800F037FB7B68B3F90C301946386872
:1022E00000F030FB7B68B3F90E301946386800F017
:1022F00029FB00BF0837BD4680BDB0B5ADF5007DF8
:102300003EAF3B1D18603B46196007F108023B1DBC
:1023100011461868FFF7A8FF07F108043D46684614
:1023200004F10C03F122194600F020FF94E80E009E
:10233000286800F069FA0346184607F58477BD4619
:10234000B0BDB0B5ADF5007D3EAF3B1D186007F1E7
:1023500008031921184600F073FA07F108043D1D1F
:10236000684604F10C03F122194600F0FFFE94E8E0
:102370000E00286800F048FA0346184607F58477EF
:10238000BD46B0BD90B585B000AF78603960002320
:10239000FB7316E0FC7B386800F0BDFA03461A4672
:1023A0007B6823F82420FC7B386800F0B4FA0346ED
:1023B00019467A68A30013440A465A80FB7B01330E
:1023C000FB73FB7B022BE5D9386800F0A4FA0346C7
:1023D0009AB27B689A81386800F09DFA03469AB2F7
:1023E0007B68DA81386800F055FA03461A467B6844
:1023F0001A740321386800F0EEFA7B681433062261
:102400001946386800F0B7FA7B6820330322194672
:10241000386800F0B0FA7B68263303221946386822
:1024200000F0A9FA7B682C3303221946386800F0C3
:10243000A2FA386800F06FFA03469AB27B685A86AF
:10244000386800F068FA03469AB27B689A86386862
:1024500000F020FA03461A467B6883F83620386875
:1024600000F059FA03469AB27B681A87386800F080
:1024700011FA03461A467B6883F83A20386800F060
:1024800009FA03461A467B6883F83B20386800F057
:1024900001FA03461A467B6883F83C207B683D338B
:1024A00003221946386800F079FA3B685B78442BC0
:1024B00005D03B685B78172B01D0002308E0386813
:1024C00000F0D4F90346002B01D0002300E00423E0
:1024D00018461437BD4690BD80B582B000AF786015
:1024E00039607B6839681846FFF74CFF3B685B78BA
:1024F000192B4AD17B68403303221946386800F013
:102500003AFA386800F0C6F97B6848330322194666
:10251000386800F030FA386800F0FDF903469AB2E6
:102520007B68A3F84E207B68503303221946386835
:1025300000F021FA386800F0ADF903465AB27B6822
:1025400083F85620386800F0A5F903465AB27B6834
:1025500083F85720386800F09DF903461A467B68D7
:1025600083F85820386800F095F903461A467B68CE
:1025700083F859207B685A3303221946386800F0E3
:10258000FAF91E21386800F026FA386800F06EF972
:102590000346002B01D0002300E00423184608372F
:1025A000BD4680BD80B483B000AF786039607B6881
:1025B0003A685A607B6800221A707B6800229A8110
:1025C00000BF0C37BD465DF8047B704780B483B014
:1025D00000AF78600B46FB707B689B8901339AB231
:1025E0007B689A8100BF0C37BD465DF8047B70475D
:1025F00080B483B000AF78607B6800229A7200BF1D
:102600000C37BD465DF8047B704780B483B000AFE3
:1026100078600B46FB707B689A7AFB781344DAB2D9
:102620007B689A7200BF0C37BD465DF8047B70472B
:1026300080B582B000AF78600B46FB707B681B787A
:10264000052B7ED801A252F823F000BF65260008B2
:102650007D26000893260008A3260008E726000828
:1026600023270008FB783E2B03D17B6801221A70D8
:1026700067E001217868FFF7A9FF62E07B680E330D
:10268000FA781146184600F0DBF87B6802221A70CF
:1026900057E0FB789AB27B681A817B6803221A7034
:1026A0004FE0FA787B68DB7B19467B681B890B441B
:1026B0009A4210D17B681B89FA2B0CD87868FFF7F7
:1026C00097FF7B681B89002B01D1052200E00422C3
:1026D0007B681A7035E001217868FFF777FF7B6827
:1026E00000221A702DE07B6893F80A315A1CD1B28F
:1026F0007A6882F80A111A467B681344FA781A74C9
:10270000FB7819467868FFF780FF7B6893F80A31F9
:102710009AB27B681B899A4212D17B6805221A7093
:102720000EE07B6800221A707B689B7AFA789A42E6
:1027300001D1012306E001217868FFF747FF00E09F
:1027400000BF002318460837BD4680BD80B586B05F
:1027500000AFF8607A601A460B46FB7213463B8165
:102760003B89FA2B01D902234AE0FB685B68DB68EE
:10277000984703461A463B8905339A4201DA0323F8
:102780003EE0FB685B689B683E209847FB685B689F
:102790009B68FA7A10469847FB685B689B683A89A1
:1027A000D2B210469847FB685B689B683A89D1B201
:1027B000FA7A0A44D2B2104698470023FB750023E8
:1027C000BB7511E0BB7D7A6813441B787B75FB6891
:1027D0005B689B687A7D10469847FA7D7B7D134441
:1027E000FB75BB7D0133BB75BB7D9BB23A899A42B9
:1027F000E8D8FB685B689B68FA7D10469847002321
:1028000018461837BD4680BD84B080B582B000AF91
:10281000786007F1140080E80E00797D97F8103198
:1028200098B207F114039A1C03467868FFF78EFFED
:10283000034618460837BD46BDE8804004B07047DF
:1028400080B483B000AF78600B46FB707B68FA7889
:102850005A707B68002283F8FC207B6800221A7083
:1028600000BF0C37BD465DF8047B704780B483B071
:1028700000AF78607B6893F8FC207B681B789A42F5
:102880000CBF01230023DBB218460C37BD465DF8B0
:10289000047B704780B483B000AF78607B681A789F
:1028A0007B6893F8FC309A420AD27B681B785A1CEA
:1028B000D1B27A6811701A467B6813449B7806E09F
:1028C0007B681B780133DAB27B681A7000231846E4
:1028D0000C37BD465DF8047B704780B483B000AF11
:1028E00078600B46FB707B6893F8FC30F92B0CD8B2
:1028F0007B6893F8FC305A1CD1B27A6882F8FC10DD
:102900001A467B681344FA789A7000BF0C37BD46AC
:102910005DF8047B704790B583B000AF786078684D
:10292000FFF7B8FF03469CB27868FFF7B3FF034692
:102930009BB21B029BB223449BB21BB218460C37BE
:10294000BD4690BD80B582B000AF78600B467B80FD
:102950007B88DBB219467868FFF7BFFFB7F9023012
:102960001B121BB2DBB219467868FFF7B6FF00BF37
:102970000837BD4680BD80B584B000AFF860B9604F
:102980001346FB71FB795B00DBB21A46B968F86845
:1029900000F004F800BF1037BD4680BD90B587B089
:1029A00000AFF860B9601346FB710023FB750AE0C5
:1029B000FB7DBA68D418F868FFF76CFF03462370F4
:1029C000FB7D0133FB75FA7DFB799A42F0D300BFA2
:1029D0001C37BD4690BD80B582B000AF78600B4615
:1029E000FB7002E07868FFF755FFFB785A1EFA701B
:1029F000002BF7D100BF0837BD4680BD80B400AFC3
:102A000000231846BD465DF8047B704780B400AFD4
:102A100000231846BD465DF8047B704780B582B040
:102A200000AF0346FB71F91D642301220348FEF742
:102A3000A4FE00BF0837BD4680BD00BFC80100200E
:102A400080B400AF4FF6FF731846BD465DF8047BB7
:102A50007047000080B5ADF5247D00AF3B1D1860C8
:102A60003B1D1B68224A93423DD101222149204847
:102A7000FEF71CFF1F4B1B7819461F48FFF7D8FDB8
:102A80000346012B2FD107F18C021B4B10460E334E
:102A9000FD22194600F06AFB07F18C035B78192BC5
:102AA00007D107F18C0207F10C0311461846FFF716
:102AB00013FD07F18C035B781A4607F18C0393F83A
:102AC000FC3007F5C6700D4900F064FB0346C7F8FB
:102AD0008C32D7F88C329AB207F5C6714FF47A73FC
:102AE0000748FEF74AFE00BF07F52477BD4680BDC4
:102AF000C8010020080200209C000020BC3900080A
:102B00000C02002080B582B000AF374B374A1A6004
:102B1000354B374ADA60344B364A5A60324B364AC4
:102B20009A6031493548FFF73DFD00237B6013E093
:102B3000334A7B68134401221A70314A7B689B0038
:102B400013440022DA802E4A7B689B001344002243
:102B50009A807B6801337B607B68022BE8DDFDF7A0
:102B600027FD00F055F800F015F900F0E9F800F045
:102B7000BDF8012223492448FEF798FE012123488D
:102B8000FEF76CF80346FB7002212048FEF766F85A
:102B90000346BB70FA78BB789A4207D1184B0022E3
:102BA0009A8116491648FFF7A8FB13E0FB78012B22
:102BB00008D1134B4FF63E229A8110491048FFF777
:102BC0009CFB07E00E4B40F2C2529A810B490C4825
:102BD000FFF793FB0A20FDF75DFD0848FFF7B1FB07
:102BE0005A20FDF757FDC9E7A8010020FD2900087C
:102BF000412A00080D2A00081D2A00089C00002018
:102C0000B801002008020020C8010020000802408E
:102C100080B594B000AF07F11C03342200211846A0
:102C200000F0AFFA07F1080300221A605A609A60B8
:102C3000DA601A6100237B602A4B1B6C294A43F03F
:102C400080531364274B1B6C03F080537B607B68BD
:102C500000233B60244B1B6823F44043224A43F487
:102C600080431360204B1B6803F440433B603B6888
:102C70000223FB610123BB621023FB6202237B63FF
:102C80000023BB631023FB634FF4A8733B6404234E
:102C90007B640223BB640223FB6407F11C03184618
:102CA000FEF7C4FA0346002B01D000F0EFF80F2323
:102CB000BB600223FB6000233B614FF480537B61C8
:102CC0000023BB6107F1080302211846FDF7F8FF56
:102CD0000346002B01D000F0D9F800BF5037BD46A5
:102CE00080BD00BF003802400070004080B500AFDA
:102CF000114B124A1A60104B4FF4E1325A600E4BDE
:102D000000229A600C4B0022DA600B4B00221A6101
:102D1000094B0C225A61084B00229A61064B002293
:102D2000DA610548FEF7DCFC0346002B01D000F019
:102D3000ADF800BF80BD00BFC801002000100140F9
:102D400080B500AF114B124A1A60104B4FF4E132BC
:102D50005A600E4B00229A600C4B0022DA600B4B3B
:102D600000221A61094B0C225A61084B00229A6119
:102D7000064B0022DA610548FEF7B2FC0346002B41
:102D800001D000F083F800BF80BD00BF0C0200201E
:102D90000044004080B58AB000AF07F11403002260
:102DA0001A605A609A60DA601A6100233B61334B03
:102DB0001B6B324A43F004031363304B1B6B03F06D
:102DC00004033B613B690023FB602C4B1B6B2B4ACC
:102DD00043F080031363294B1B6B03F08003FB60FC
:102DE000FB680023BB60254B1B6B244A43F00103A7
:102DF0001363224B1B6B03F00103BB60BB68002312
:102E00007B601E4B1B6B1D4A43F0020313631B4B7D
:102E10001B6B03F002037B607B68002220211848B3
:102E2000FDF734FF4FF400537B61164BBB61002369
:102E3000FB6107F1140319461348FDF77DFD0323D9
:102E40007B610023BB610223FB6107F11403194678
:102E50000D48FDF771FD20237B610123BB61002339
:102E6000FB6100233B6207F1140319460448FDF798
:102E700063FD00BF2837BD4680BD00BF003802405B
:102E800000000240000021100008024080B400AFA2
:102E900000BFBD465DF8047B7047000080B582B07E
:102EA00000AF00237B60104B5B6C0F4A43F4804300
:102EB00053640D4B5B6C03F480437B607B680023A1
:102EC0003B60094B1B6C084A43F080531364064B6C
:102ED0001B6C03F080533B603B680720FDF7C8FC88
:102EE00000BF0837BD4680BD0038024080B58CB0B9
:102EF00000AF786007F11C0300221A605A609A60E4
:102F0000DA601A617B681B68364A934235D1002328
:102F1000BB61354B5B6C344A43F010035364324B56
:102F20005B6C03F01003BB61BB6900237B612E4B1C
:102F30001B6B2D4A43F0010313632B4B1B6B03F0F8
:102F400001037B617B694FF4C063FB6102233B6239
:102F500001237B620323BB620723FB6207F11C038F
:102F600019462248FDF7E8FC002200212520FDF744
:102F70008AFC2520FDF7A3FC30E07B681B681C4A17
:102F800093422BD100233B61174B1B6C164A43F431
:102F900000331364144B1B6C03F400333B613B6937
:102FA0000023FB60104B1B6B0F4A43F001031363BC
:102FB0000D4B1B6B03F00103FB60FB680C23FB61F3
:102FC00002233B6201237B620323BB620723FB6274
:102FD00007F11C0319460548FDF7AEFC00BF30376A
:102FE000BD4680BD00100140003802400000024094
:102FF0000044004080B400AF00BFBD465DF8047BD4
:10300000704780B400AFFEE780B400AFFEE780B445
:1030100000AFFEE780B400AFFEE780B400AF00BFB2
:10302000BD465DF8047B704780B400AF00BFBD466D
:103030005DF8047B704780B400AF00BFBD465DF80B
:10304000047B704780B500AFFDF704FB00BF80BD77
:1030500080B500AF0248FEF777FC00BF80BD00BF1F
:10306000C801002080B400AF164BD3F88830154A51
:1030700043F47003C2F88830134B1B68124A43F0C4
:1030800001031360104B00229A600F4B1B680E4A1D
:1030900023F0847323F4803313600B4B0B4A5A6084
:1030A000094B1B68084A23F480231360064B002257
:1030B000DA60044B4FF000629A6000BFBD465DF8D5
:1030C000047B704700ED00E000380240103000241F
:1030D000DFF834D0002103E00C4B5B58435004313F
:1030E0000B480C4B42189A42F6D30B4A02E00023DD
:1030F00042F8043B094B9A42F9D3FFF7B3FF00F0C3
:1031000011F8FFF7FFFC704700000220343A000876
:1031100000000020700000207000002050020020FD
:10312000FEE7000070B50D4E0D4CA41BA410002549
:10313000A54209D10B4E0C4C00F034FCA41BA4108A
:103140000025A54205D170BD56F8253098470135B8
:10315000EEE756F8253098470135F2E72C3A00089B
:103160002C3A00082C3A0008303A000810B5431EEB
:103170000A44914200D110BD11F8014B03F8014FF0
:10318000F7E702440346934200D1704703F8011B5E
:10319000F9E700000EB400B59CB01DAB029006909C
:1031A0006FF00041094807910491094953F8042B35
:1031B00005910068019302A900F066F8029B0022C5
:1031C0001A701CB05DF804EB03B070470C000020CF
:1031D0000802FFFF2DE9F0478E689E4282460C46AA
:1031E0009046994637D88A8912F4906F31D0256875
:1031F00009696F1A6569022305EB450595FBF3F52F
:1032000009F101033B449D4238BF1D46530530D5AB
:10321000294600F01FFB064650B90C23CAF80030BF
:10322000A38943F04003A3814FF0FF30BDE8F0874E
:103230003A462169FFF79AFFA38923F4906343F08C
:103240008003A381266165613E44ED1B2660A56075
:103250004E464E4500D94E4632464146206800F063
:1032600091FAA3689B1BA36023681E44266000207C
:10327000DCE72A4600F048FB06460028E2D1216937
:10328000504600F099FAC8E72DE9F04F9DB080460E
:1032900003938B891D060C4616460FD50B696BB937
:1032A000402100F0D7FA2060206128B90C23C8F82B
:1032B00000304FF0FF30C7E04023636100230993E3
:1032C00020238DF8293030238DF82A304FF0010B60
:1032D00037463D4615F8013B0BB1252B3ED1B7EBE8
:1032E000060A0BD05346324621464046FFF772FF8E
:1032F000013000F0A480099B534409933B78002BD4
:1033000000F09D8000234FF0FF32CDE905230493A8
:1033100007938DF853301A932F46052217F8011B97
:103320004F48FDF7F5F8049BD0B9D90644BF2022D9
:103330008DF853201A0744BF2B228DF853202A788A
:103340002A2A15D0079A2F4600200A25394611F857
:10335000013B303B092B4DD9B8B10FE02F46B8E700
:103360003F4A801A0BFA00F0184304903D46D3E719
:10337000039A111D12680391002A01DB079204E0F1
:10338000524243F00203079204933B782E2B0CD158
:103390007B782A2B33D1039B1A1D1B680392002BC9
:1033A000B8BF4FF0FF33023705932E4D3978032213
:1033B0002846FDF7ADF838B14023401B03FA00F072
:1033C000049B034301370493397827488DF828106C
:1033D00006227E1CFDF79CF8002838D0234B13BB37
:1033E000039B073323F0070308330393099B4B44E4
:1033F00009936DE705FB023201200F46A6E7002383
:103400000137059319460A25384610F8012B303A42
:10341000092A03D9002BC8D00591C6E705FB012175
:1034200001230746F0E703AB00932246104B04A9A3
:103430004046AFF30080B0F1FF3F8146D6D1A3896B
:103440005B063FF536AF09981DB0BDE8F08F03ABC2
:1034500000932246064B04A9404600F081F8EAE7B3
:10346000F0390008F6390008FA39000800000000B9
:10347000D53100082DE9F04791461F468A680B694F
:10348000DDF820809342B8BF1346C9F8003091F8A8
:10349000432006460C4612B10133C9F800302368B8
:1034A000990642BFD9F800300233C9F800302568C8
:1034B00015F0060507D104F1190AE368D9F80020D0
:1034C0009B1AAB4228DC94F843302268003318BFC3
:1034D000012392062DD404F1430239463046C047F9
:1034E000013020D02368E568D9F8002003F00603F6
:1034F000042B08BFAD1AA36822690CBF25EAE57545
:1035000000259342C4BF9B1AED184FF000091A34EE
:103510004D451AD1002008E0012352463946304675
:10352000C047013003D14FF0FF30BDE8F0870135CF
:10353000C3E7E1185A1C302081F84300224494F874
:10354000451082F843100233C5E70123224639466D
:103550003046C0470130E6D009F10109D8E7000044
:103560002DE9F04301F1430C0C46097E85B06E292C
:103570001746064698460C9A00F0B38022D8632975
:1035800036D00AD8002900F0B980582900F083808D
:1035900004F1420584F8421032E0642901D069291F
:1035A000F6D120681368050603F104012AD51B68CB
:1035B0001160002B03DA2D225B4284F843206F4810
:1035C0000A2239E0732900F09D8008D86F2920D0A5
:1035D0007029DDD1236843F02003236003E07529BF
:1035E00017D07829D4D1782384F84530644855E041
:1035F0001368191D1B68116004F1420584F84230FC
:1036000001238CE01B68116010F0400F18BF1BB243
:10361000CFE713682568181D1060280601D51B68C0
:1036200002E06806FBD51B8854486F2914BF0A22A4
:103630000822002184F843106568A560002DC0F2BF
:103640009580216821F004012160002B3DD1002DDF
:1036500040F08E806546082A0BD12368DB0708D529
:10366000236962689A42DEBF302305F8013C05F108
:10367000FF35ACEB05032361CDF800803B4603AA80
:1036800021463046FFF7F6FE01304DD14FF0FF30B6
:1036900005B0BDE8F083394884F845101368216807
:1036A0001D1D1B6815600A060BD5CA0744BF41F0F3
:1036B000200121601BB9226822F020022260102222
:1036C000B7E74D0648BF9BB2EFE76546B3FBF2F1A3
:1036D00002FB1133C35C05F8013D0B460029F5D10F
:1036E000B9E7136825686169181D106028061B6812
:1036F00001D5196002E06A06FBD519800023236119
:103700006546B9E71368191D11601D6862680021DC
:103710002846FCF7FDFE08B1401B6060636823612A
:10372000002384F84330A7E723692A463946304608
:10373000C0470130AAD023689B0713D4E068039BDD
:103740009842B8BF1846A3E701234A463946304697
:10375000C04701309AD00135E368039A9B1AAB4207
:10376000F2DCEBE7002504F11909F5E7002BACD1F9
:10377000037884F8423004F142056CE7013A00080E
:10378000123A0008884210B501EB020307D8421E26
:1037900099420AD011F8014B02F8014FF8E7834231
:1037A000F5D98118D21AD34200D110BD13F8014DBA
:1037B00001F8014DF7E7000038B50546002945D06E
:1037C00051F8043C0C1F002BB8BFE41800F0D2F8ED
:1037D0001F4A1368104633B9636014602846BDE879
:1037E000384000F0C8B8A3420CD92168621893424F
:1037F00004BF1A685B68636004BF521822600460EB
:10380000ECE713465A680AB1A242FAD91968581867
:10381000A0420BD120680144581882421960DDD1C2
:10382000106852685A6001441960D7E702D90C2326
:103830002B60D3E7206821188A4204BF11685268C0
:10384000626004BF091821605C60C7E738BD00BF33
:103850008C00002070B5CD1C25F0030508350C2D1B
:1038600038BF0C25002D064601DBA94203D90C23E5
:103870003360002070BD00F07DF8214A14682146B5
:1038800091B9204C23681BB9304600F063F82060E2
:103890002946304600F05EF8431C24D10C233360E7
:1038A000304600F068F8E4E70B685B1B18D40B2B7C
:1038B0000FD90B60CD50CC18304600F05CF804F105
:1038C0000B00231D20F00700C31AD3D05A42E25048
:1038D000D0E78C424B6816BF636013600C46EBE781
:1038E0000C464968CCE7C41C24F00304A04205D070
:1038F000211A304600F02EF80130CFD02560DBE7EA
:103900008C00002090000020F8B5074614460E46B3
:1039100021B91146BDE8F840FFF79CBF22B9FFF777
:103920004BFF25462846F8BD00F026F8A0420FD2EE
:1039300021463846FFF78EFF05460028F2D0314673
:103940002246FFF713FC31463846FFF735FFE9E71B
:103950003546E7E738B5064C0023054608462360A0
:1039600000F012F8431C02D1236803B12B6038BD6C
:103970004C0200207047704751F8043C181F002B80
:10398000BCBF0B58C0187047044A05491368002B88
:1039900008BF0B461844106018467047940000207A
:1039A00050020020F8B500BFF8BC08BC9E46704726
:0C39B000F8B500BFF8BC08BC9E4670478C
:1039BC0069643A2025642C206C656E3A2025643BA2
:1039CC0020646174613A200A0000000000000000CD
:1039DC0000000000010203040607080900000000B3
:1039EC0001020304232D302B2000686C4C0065660B
:1039FC006745464700303132333435363738394134
:103A0C004243444546003031323334353637383949
:083A1C0061626364656600004D
:083A24001CC8FF7F0100000037
:043A2C00F501000898
:043A3000D1010008B8
:103A340010000000010000000024F4001000002029
:103A44000000000000000000000000000000000072
:103A54000000000000000000000000000000000062
:103A64000000000000000000000000000000000052
:103A74000000000000000000000000000000000042
:103A84000000000000000000000000000000000032
:103A94000000000000000000000000000000000022
:04000005080030D1EE
:00000001FF
